{
  "address": "0x5ADd77fF9267F713765Fd3B0389Ba3bD18987baA",
  "abi": [
    {
      "inputs": [
        {
          "internalType": "address",
          "name": "_swapRouter",
          "type": "address"
        }
      ],
      "stateMutability": "nonpayable",
      "type": "constructor"
    },
    {
      "anonymous": false,
      "inputs": [
        {
          "indexed": true,
          "internalType": "address",
          "name": "participator",
          "type": "address"
        },
        {
          "indexed": true,
          "internalType": "uint256",
          "name": "optionId",
          "type": "uint256"
        }
      ],
      "name": "Exercise",
      "type": "event"
    },
    {
      "anonymous": false,
      "inputs": [
        {
          "indexed": false,
          "internalType": "uint256",
          "name": "optionId",
          "type": "uint256"
        },
        {
          "indexed": false,
          "internalType": "bool",
          "name": "isListed",
          "type": "bool"
        }
      ],
      "name": "Listed",
      "type": "event"
    },
    {
      "anonymous": false,
      "inputs": [
        {
          "indexed": true,
          "internalType": "address",
          "name": "initiator",
          "type": "address"
        },
        {
          "indexed": true,
          "internalType": "uint256",
          "name": "optionId",
          "type": "uint256"
        },
        {
          "indexed": false,
          "internalType": "bool",
          "name": "setted",
          "type": "bool"
        }
      ],
      "name": "Offer",
      "type": "event"
    },
    {
      "anonymous": false,
      "inputs": [
        {
          "indexed": true,
          "internalType": "address",
          "name": "participator",
          "type": "address"
        },
        {
          "indexed": true,
          "internalType": "uint256",
          "name": "optionId",
          "type": "uint256"
        }
      ],
      "name": "Participate",
      "type": "event"
    },
    {
      "anonymous": false,
      "inputs": [
        {
          "indexed": true,
          "internalType": "address",
          "name": "from",
          "type": "address"
        },
        {
          "indexed": true,
          "internalType": "address",
          "name": "to",
          "type": "address"
        },
        {
          "indexed": true,
          "internalType": "uint256",
          "name": "optionId",
          "type": "uint256"
        }
      ],
      "name": "Transfer",
      "type": "event"
    },
    {
      "anonymous": false,
      "inputs": [
        {
          "indexed": false,
          "internalType": "address",
          "name": "asset",
          "type": "address"
        },
        {
          "indexed": false,
          "internalType": "address",
          "name": "to",
          "type": "address"
        },
        {
          "indexed": false,
          "internalType": "uint256",
          "name": "amount",
          "type": "uint256"
        }
      ],
      "name": "Withdraw",
      "type": "event"
    },
    {
      "anonymous": false,
      "inputs": [
        {
          "indexed": false,
          "internalType": "address",
          "name": "to",
          "type": "address"
        },
        {
          "indexed": false,
          "internalType": "uint256",
          "name": "optionId",
          "type": "uint256"
        },
        {
          "indexed": false,
          "internalType": "uint256",
          "name": "amount",
          "type": "uint256"
        }
      ],
      "name": "WithdrawCA",
      "type": "event"
    },
    {
      "anonymous": false,
      "inputs": [
        {
          "indexed": false,
          "internalType": "address",
          "name": "to",
          "type": "address"
        },
        {
          "indexed": false,
          "internalType": "uint256",
          "name": "optionId",
          "type": "uint256"
        },
        {
          "indexed": false,
          "internalType": "uint256",
          "name": "amount",
          "type": "uint256"
        }
      ],
      "name": "WithdrawColleteral",
      "type": "event"
    },
    {
      "anonymous": false,
      "inputs": [
        {
          "indexed": false,
          "internalType": "address",
          "name": "to",
          "type": "address"
        },
        {
          "indexed": false,
          "internalType": "uint256",
          "name": "optionId",
          "type": "uint256"
        },
        {
          "indexed": false,
          "internalType": "uint256",
          "name": "amount",
          "type": "uint256"
        }
      ],
      "name": "WithdrawPremium",
      "type": "event"
    },
    {
      "inputs": [
        {
          "internalType": "uint256",
          "name": "optionId",
          "type": "uint256"
        }
      ],
      "name": "buyOption",
      "outputs": [],
      "stateMutability": "nonpayable",
      "type": "function"
    },
    {
      "inputs": [
        {
          "internalType": "bytes",
          "name": "checkData",
          "type": "bytes"
        }
      ],
      "name": "checkUpkeep",
      "outputs": [
        {
          "internalType": "bool",
          "name": "upkeepNeeded",
          "type": "bool"
        },
        {
          "internalType": "bytes",
          "name": "performData",
          "type": "bytes"
        }
      ],
      "stateMutability": "view",
      "type": "function"
    },
    {
      "inputs": [
        {
          "internalType": "uint256",
          "name": "optionId",
          "type": "uint256"
        }
      ],
      "name": "delistOption",
      "outputs": [],
      "stateMutability": "nonpayable",
      "type": "function"
    },
    {
      "inputs": [
        {
          "internalType": "uint256",
          "name": "optionId",
          "type": "uint256"
        }
      ],
      "name": "exerciseOption",
      "outputs": [],
      "stateMutability": "nonpayable",
      "type": "function"
    },
    {
      "inputs": [
        {
          "internalType": "uint256",
          "name": "optionId",
          "type": "uint256"
        },
        {
          "internalType": "uint256",
          "name": "minAmount",
          "type": "uint256"
        },
        {
          "internalType": "bytes",
          "name": "params",
          "type": "bytes"
        }
      ],
      "name": "flashExercise",
      "outputs": [],
      "stateMutability": "nonpayable",
      "type": "function"
    },
    {
      "inputs": [
        {
          "internalType": "uint256",
          "name": "optionId",
          "type": "uint256"
        },
        {
          "internalType": "address",
          "name": "asset",
          "type": "address"
        },
        {
          "internalType": "uint256",
          "name": "amount",
          "type": "uint256"
        }
      ],
      "name": "listOption",
      "outputs": [],
      "stateMutability": "nonpayable",
      "type": "function"
    },
    {
      "inputs": [
        {
          "internalType": "address",
          "name": "colleteral",
          "type": "address"
        },
        {
          "internalType": "address",
          "name": "counterAsset",
          "type": "address"
        },
        {
          "internalType": "address",
          "name": "premiumAsset",
          "type": "address"
        },
        {
          "internalType": "uint256",
          "name": "amountOfColleteral",
          "type": "uint256"
        },
        {
          "internalType": "uint256",
          "name": "amountOfCA",
          "type": "uint256"
        },
        {
          "internalType": "uint256",
          "name": "premiumAmount",
          "type": "uint256"
        },
        {
          "internalType": "uint256",
          "name": "optionExpiry",
          "type": "uint256"
        },
        {
          "internalType": "uint256",
          "name": "offerEnd",
          "type": "uint256"
        }
      ],
      "name": "offerOption",
      "outputs": [],
      "stateMutability": "nonpayable",
      "type": "function"
    },
    {
      "inputs": [
        {
          "internalType": "uint256",
          "name": "",
          "type": "uint256"
        }
      ],
      "name": "optionDetails",
      "outputs": [
        {
          "internalType": "address",
          "name": "listAsset",
          "type": "address"
        },
        {
          "internalType": "address",
          "name": "priceFeedAddress",
          "type": "address"
        },
        {
          "internalType": "address",
          "name": "poolAddress",
          "type": "address"
        },
        {
          "internalType": "uint256",
          "name": "offerEnd",
          "type": "uint256"
        },
        {
          "internalType": "uint256",
          "name": "optionExpiry",
          "type": "uint256"
        },
        {
          "internalType": "uint256",
          "name": "listAmount",
          "type": "uint256"
        },
        {
          "internalType": "bool",
          "name": "isListed",
          "type": "bool"
        },
        {
          "internalType": "bool",
          "name": "exercised",
          "type": "bool"
        }
      ],
      "stateMutability": "view",
      "type": "function"
    },
    {
      "inputs": [
        {
          "internalType": "uint256",
          "name": "",
          "type": "uint256"
        }
      ],
      "name": "options",
      "outputs": [
        {
          "internalType": "address",
          "name": "initiator",
          "type": "address"
        },
        {
          "internalType": "address",
          "name": "participant",
          "type": "address"
        },
        {
          "internalType": "address",
          "name": "colleteral",
          "type": "address"
        },
        {
          "internalType": "address",
          "name": "counterAsset",
          "type": "address"
        },
        {
          "internalType": "address",
          "name": "premiumAsset",
          "type": "address"
        },
        {
          "internalType": "uint256",
          "name": "amountOfColleteral",
          "type": "uint256"
        },
        {
          "internalType": "uint256",
          "name": "amountOfCA",
          "type": "uint256"
        },
        {
          "internalType": "uint256",
          "name": "premiumAmount",
          "type": "uint256"
        }
      ],
      "stateMutability": "view",
      "type": "function"
    },
    {
      "inputs": [
        {
          "internalType": "uint256",
          "name": "optionId",
          "type": "uint256"
        }
      ],
      "name": "participateOption",
      "outputs": [],
      "stateMutability": "nonpayable",
      "type": "function"
    },
    {
      "inputs": [
        {
          "internalType": "bytes",
          "name": "performData",
          "type": "bytes"
        }
      ],
      "name": "performUpkeep",
      "outputs": [],
      "stateMutability": "nonpayable",
      "type": "function"
    },
    {
      "inputs": [
        {
          "internalType": "uint256",
          "name": "optionId",
          "type": "uint256"
        }
      ],
      "name": "refundColleteral",
      "outputs": [],
      "stateMutability": "nonpayable",
      "type": "function"
    },
    {
      "inputs": [
        {
          "internalType": "uint256",
          "name": "optionId",
          "type": "uint256"
        },
        {
          "internalType": "address",
          "name": "_priceFeedAddress",
          "type": "address"
        }
      ],
      "name": "setPriceFeedAddress",
      "outputs": [],
      "stateMutability": "nonpayable",
      "type": "function"
    },
    {
      "inputs": [
        {
          "internalType": "bytes4",
          "name": "interfaceId",
          "type": "bytes4"
        }
      ],
      "name": "supportsInterface",
      "outputs": [
        {
          "internalType": "bool",
          "name": "",
          "type": "bool"
        }
      ],
      "stateMutability": "view",
      "type": "function"
    },
    {
      "inputs": [],
      "name": "swapRouter",
      "outputs": [
        {
          "internalType": "address",
          "name": "",
          "type": "address"
        }
      ],
      "stateMutability": "view",
      "type": "function"
    },
    {
      "inputs": [
        {
          "internalType": "address",
          "name": "asset",
          "type": "address"
        },
        {
          "internalType": "uint256",
          "name": "amount",
          "type": "uint256"
        }
      ],
      "name": "withdraw",
      "outputs": [],
      "stateMutability": "nonpayable",
      "type": "function"
    },
    {
      "inputs": [
        {
          "internalType": "address",
          "name": "",
          "type": "address"
        },
        {
          "internalType": "address",
          "name": "",
          "type": "address"
        }
      ],
      "name": "withdrawAllowance",
      "outputs": [
        {
          "internalType": "uint256",
          "name": "",
          "type": "uint256"
        }
      ],
      "stateMutability": "view",
      "type": "function"
    },
    {
      "inputs": [
        {
          "internalType": "uint256",
          "name": "optionId",
          "type": "uint256"
        }
      ],
      "name": "withdrawCA",
      "outputs": [],
      "stateMutability": "nonpayable",
      "type": "function"
    },
    {
      "inputs": [
        {
          "internalType": "uint256",
          "name": "optionId",
          "type": "uint256"
        }
      ],
      "name": "withdrawPremium",
      "outputs": [],
      "stateMutability": "nonpayable",
      "type": "function"
    }
  ],
  "transactionHash": "0x073a4206a167d4ea0d8c60a8ff391931d6ede43b3a56fe3accbef2f87e77a73e",
  "args": [
    "0xE592427A0AEce92De3Edee1F18E0157C05861564"
  ],
  "numDeployments": 2,
  "solcInputHash": "bf11eb13d5b016728ff34dc1ec990075",
  "bytecode": "0x60a06040523480156200001157600080fd5b5060405162004e3338038062004e338339818101604052810190620000379190620000dc565b8073ffffffffffffffffffffffffffffffffffffffff1660808173ffffffffffffffffffffffffffffffffffffffff1681525050506200010e565b600080fd5b600073ffffffffffffffffffffffffffffffffffffffff82169050919050565b6000620000a48262000077565b9050919050565b620000b68162000097565b8114620000c257600080fd5b50565b600081519050620000d681620000ab565b92915050565b600060208284031215620000f557620000f462000072565b5b60006200010584828501620000c5565b91505092915050565b608051614cfb6200013860003960008181611a94015281816125a501526127190152614cfb6000f3fe608060405234801561001057600080fd5b50600436106101215760003560e01c806357620cdf116100ad578063c31c9c0711610071578063c31c9c0714610321578063f3fef3a31461033f578063f52f25261461035b578063f81cba0514610377578063fba225b91461039357610121565b806357620cdf14610280578063605142051461029c5780636e04ff0d146102b85780637f8368da146102e9578063b91916a61461030557610121565b8063233ac008116100f4578063233ac008146101c557806329a2755c146101f55780633ea73cc714610211578063409e22051461022d5780634585e33b1461026457610121565b806301ffc9a714610126578063065170f414610156578063155295c71461018d5780631f01664a146101a9575b600080fd5b610140600480360381019061013b9190613813565b6103af565b60405161014d919061385b565b60405180910390f35b610170600480360381019061016b91906138ac565b610458565b604051610184989796959493929190613929565b60405180910390f35b6101a760048036038101906101a29190613a0c565b61051a565b005b6101c360048036038101906101be91906138ac565b610696565b005b6101df60048036038101906101da9190613aac565b610a1d565b6040516101ec9190613aec565b60405180910390f35b61020f600480360381019061020a91906138ac565b610a42565b005b61022b60048036038101906102269190613b07565b610a4f565b005b610247600480360381019061024291906138ac565b610b50565b60405161025b989796959493929190613b47565b60405180910390f35b61027e60048036038101906102799190613bc5565b610c38565b005b61029a600480360381019061029591906138ac565b610ed2565b005b6102b660048036038101906102b191906138ac565b610fac565b005b6102d260048036038101906102cd9190613bc5565b61123b565b6040516102e0929190613cab565b60405180910390f35b61030360048036038101906102fe9190613cdb565b611371565b005b61031f600480360381019061031a9190613d91565b611774565b005b610329611a92565b6040516103369190613de4565b60405180910390f35b61035960048036038101906103549190613dff565b611ab6565b005b610375600480360381019061037091906138ac565b611cc6565b005b610391600480360381019061038c91906138ac565b611e47565b005b6103ad60048036038101906103a891906138ac565b612108565b005b60006301ffc9a760e01b7bffffffffffffffffffffffffffffffffffffffffffffffffffffffff1916827bffffffffffffffffffffffffffffffffffffffffffffffffffffffff191614806104515750634585e33b60e01b636e04ff0d60e01b187bffffffffffffffffffffffffffffffffffffffffffffffffffffffff1916827bffffffffffffffffffffffffffffffffffffffffffffffffffffffff1916145b9050919050565b60026020528060005260406000206000915090508060000160009054906101000a900473ffffffffffffffffffffffffffffffffffffffff16908060010160009054906101000a900473ffffffffffffffffffffffffffffffffffffffff16908060020160009054906101000a900473ffffffffffffffffffffffffffffffffffffffff16908060030154908060040154908060050154908060060160009054906101000a900460ff16908060060160019054906101000a900460ff16905088565b33846001600082815260200190815260200160002060010160009054906101000a900473ffffffffffffffffffffffffffffffffffffffff1673ffffffffffffffffffffffffffffffffffffffff168273ffffffffffffffffffffffffffffffffffffffff16146105c0576040517f08c379a00000000000000000000000000000000000000000000000000000000081526004016105b790613e9c565b60405180910390fd5b85600080156106265742600260008481526020019081526020016000206004015410610621576040517f08c379a000000000000000000000000000000000000000000000000000000000815260040161061890613f08565b60405180910390fd5b610680565b426002600084815260200190815260200160002060040154101561067f576040517f08c379a000000000000000000000000000000000000000000000000000000000815260040161067690613f74565b60405180910390fd5b5b61068c888888886121e2565b5050505050505050565b33816001600082815260200190815260200160002060000160009054906101000a900473ffffffffffffffffffffffffffffffffffffffff1673ffffffffffffffffffffffffffffffffffffffff168273ffffffffffffffffffffffffffffffffffffffff161461073c576040517f08c379a000000000000000000000000000000000000000000000000000000000815260040161073390613fe0565b60405180910390fd5b826001806107ee57600073ffffffffffffffffffffffffffffffffffffffff166001600084815260200190815260200160002060010160009054906101000a900473ffffffffffffffffffffffffffffffffffffffff1673ffffffffffffffffffffffffffffffffffffffff16146107e9576040517f08c379a00000000000000000000000000000000000000000000000000000000081526004016107e09061404c565b60405180910390fd5b610895565b600073ffffffffffffffffffffffffffffffffffffffff166001600084815260200190815260200160002060010160009054906101000a900473ffffffffffffffffffffffffffffffffffffffff1673ffffffffffffffffffffffffffffffffffffffff161415610894576040517f08c379a000000000000000000000000000000000000000000000000000000000815260040161088b906140b8565b60405180910390fd5b5b60006001600087815260200190815260200160002060070154116108ee576040517f08c379a00000000000000000000000000000000000000000000000000000000081526004016108e590614124565b60405180910390fd5b600060016000878152602001908152602001600020600701549050600060016000888152602001908152602001600020600701819055506001600087815260200190815260200160002060040160009054906101000a900473ffffffffffffffffffffffffffffffffffffffff1673ffffffffffffffffffffffffffffffffffffffff1663a9059cbb33836040518363ffffffff1660e01b8152600401610996929190614144565b6020604051808303816000875af11580156109b5573d6000803e3d6000fd5b505050506040513d601f19601f820116820180604052508101906109d99190614199565b507f364c50cfd85ef2e44ae41c769b375ca3e4cd21a63f2f593171bdda820f70d1f7338783604051610a0d939291906141c6565b60405180910390a1505050505050565b6003602052816000526040600020602052806000526040600020600091509150505481565b610a4c3382612a41565b50565b33826001600082815260200190815260200160002060010160009054906101000a900473ffffffffffffffffffffffffffffffffffffffff1673ffffffffffffffffffffffffffffffffffffffff168273ffffffffffffffffffffffffffffffffffffffff1614610af5576040517f08c379a0000000000000000000000000000000000000000000000000000000008152600401610aec90613e9c565b60405180910390fd5b826002600086815260200190815260200160002060010160006101000a81548173ffffffffffffffffffffffffffffffffffffffff021916908373ffffffffffffffffffffffffffffffffffffffff16021790555050505050565b60016020528060005260406000206000915090508060000160009054906101000a900473ffffffffffffffffffffffffffffffffffffffff16908060010160009054906101000a900473ffffffffffffffffffffffffffffffffffffffff16908060020160009054906101000a900473ffffffffffffffffffffffffffffffffffffffff16908060030160009054906101000a900473ffffffffffffffffffffffffffffffffffffffff16908060040160009054906101000a900473ffffffffffffffffffffffffffffffffffffffff16908060050154908060060154908060070154905088565b6000808383600090604092610c4f93929190614207565b810190610c5c9190614242565b9150915060006002600084815260200190815260200160002060010160009054906101000a900473ffffffffffffffffffffffffffffffffffffffff1673ffffffffffffffffffffffffffffffffffffffff1663feaf968c6040518163ffffffff1660e01b815260040160a060405180830381865afa158015610ce3573d6000803e3d6000fd5b505050506040513d601f19601f82011682018060405250810190610d07919061430f565b505050915050818111610d4f576040517f08c379a0000000000000000000000000000000000000000000000000000000008152600401610d46906143d6565b60405180910390fd5b60008585604090604292610d6593929190614207565b810190610d72919061440b565b90508015610dbd57610db884846001600088815260200190815260200160002060050154610da09190614467565b88886042908092610db393929190614207565b6121e2565b610eca565b6001600085815260200190815260200160002060030160009054906101000a900473ffffffffffffffffffffffffffffffffffffffff1673ffffffffffffffffffffffffffffffffffffffff166323b872dd6001600087815260200190815260200160002060010160009054906101000a900473ffffffffffffffffffffffffffffffffffffffff163060016000898152602001908152602001600020600601546040518463ffffffff1660e01b8152600401610e7c939291906144c1565b6020604051808303816000875af1158015610e9b573d6000803e3d6000fd5b505050506040513d601f19601f82011682018060405250810190610ebf9190614199565b50610ec984612bb9565b5b505050505050565b610edc3382612d9b565b6001600082815260200190815260200160002060040160009054906101000a900473ffffffffffffffffffffffffffffffffffffffff1673ffffffffffffffffffffffffffffffffffffffff166323b872dd333060016000868152602001908152602001600020600701546040518463ffffffff1660e01b8152600401610f65939291906144c1565b6020604051808303816000875af1158015610f84573d6000803e3d6000fd5b505050506040513d601f19601f82011682018060405250810190610fa89190614199565b5050565b33816001600082815260200190815260200160002060000160009054906101000a900473ffffffffffffffffffffffffffffffffffffffff1673ffffffffffffffffffffffffffffffffffffffff168273ffffffffffffffffffffffffffffffffffffffff1614611052576040517f08c379a000000000000000000000000000000000000000000000000000000000815260040161104990613fe0565b60405180910390fd5b6002600084815260200190815260200160002060060160019054906101000a900460ff166110b5576040517f08c379a00000000000000000000000000000000000000000000000000000000081526004016110ac90614544565b60405180910390fd5b600060016000858152602001908152602001600020600601541161110e576040517f08c379a000000000000000000000000000000000000000000000000000000000815260040161110590614124565b60405180910390fd5b600060016000858152602001908152602001600020600601549050600060016000868152602001908152602001600020600601819055506001600085815260200190815260200160002060030160009054906101000a900473ffffffffffffffffffffffffffffffffffffffff1673ffffffffffffffffffffffffffffffffffffffff1663a9059cbb33836040518363ffffffff1660e01b81526004016111b6929190614144565b6020604051808303816000875af11580156111d5573d6000803e3d6000fd5b505050506040513d601f19601f820116820180604052508101906111f99190614199565b507fd4072f896a83f1975997e4b3c8cc6e44538eafada8b6537b11e77ff1ead2455f33858360405161122d939291906141c6565b60405180910390a150505050565b60006060600080858560009060409261125693929190614207565b8101906112639190614579565b9150915060006002600084815260200190815260200160002060010160009054906101000a900473ffffffffffffffffffffffffffffffffffffffff1673ffffffffffffffffffffffffffffffffffffffff1663feaf968c6040518163ffffffff1660e01b815260040160a060405180830381865afa1580156112ea573d6000803e3d6000fd5b505050506040513d601f19601f8201168201806040525081019061130e919061430f565b50505091505081811215878781818080601f016020809104026020016040519081016040528093929190818152602001838380828437600081840152601f19601f8201169050808301925050505050505090509050945094505050509250929050565b87600073ffffffffffffffffffffffffffffffffffffffff168173ffffffffffffffffffffffffffffffffffffffff1614156113e2576040517f08c379a00000000000000000000000000000000000000000000000000000000081526004016113d990614605565b60405180910390fd5b87600073ffffffffffffffffffffffffffffffffffffffff168173ffffffffffffffffffffffffffffffffffffffff161415611453576040517f08c379a000000000000000000000000000000000000000000000000000000000815260040161144a90614605565b60405180910390fd5b87600073ffffffffffffffffffffffffffffffffffffffff168173ffffffffffffffffffffffffffffffffffffffff1614156114c4576040517f08c379a00000000000000000000000000000000000000000000000000000000081526004016114bb90614605565b60405180910390fd5b8a73ffffffffffffffffffffffffffffffffffffffff166323b872dd33308b6040518463ffffffff1660e01b8152600401611501939291906144c1565b6020604051808303816000875af1158015611520573d6000803e3d6000fd5b505050506040513d601f19601f820116820180604052508101906115449190614199565b5061154f6000613171565b600061155b6000613187565b90508b6001600083815260200190815260200160002060020160006101000a81548173ffffffffffffffffffffffffffffffffffffffff021916908373ffffffffffffffffffffffffffffffffffffffff16021790555060006001600083815260200190815260200160002090508b8160030160006101000a81548173ffffffffffffffffffffffffffffffffffffffff021916908373ffffffffffffffffffffffffffffffffffffffff1602179055508a8160040160006101000a81548173ffffffffffffffffffffffffffffffffffffffff021916908373ffffffffffffffffffffffffffffffffffffffff16021790555089816005018190555087816007018190555088816006018190555062015180866116799190614467565b426116849190614625565b600260008481526020019081526020016000206003018190555062015180876116ad9190614467565b426116b89190614625565b6002600084815260200190815260200160002060040181905550338160000160006101000a81548173ffffffffffffffffffffffffffffffffffffffff021916908373ffffffffffffffffffffffffffffffffffffffff160217905550813373ffffffffffffffffffffffffffffffffffffffff167f37dc54e85dbf55ec2e90e3cdd1758d2306604af7b56743fa10d9115fd1e39159600160405161175d919061385b565b60405180910390a350505050505050505050505050565b33836001600082815260200190815260200160002060010160009054906101000a900473ffffffffffffffffffffffffffffffffffffffff1673ffffffffffffffffffffffffffffffffffffffff168273ffffffffffffffffffffffffffffffffffffffff161461181a576040517f08c379a000000000000000000000000000000000000000000000000000000000815260040161181190613e9c565b60405180910390fd5b8460008015611880574260026000848152602001908152602001600020600401541061187b576040517f08c379a000000000000000000000000000000000000000000000000000000000815260040161187290613f08565b60405180910390fd5b6118da565b42600260008481526020019081526020016000206004015410156118d9576040517f08c379a00000000000000000000000000000000000000000000000000000000081526004016118d090613f74565b60405180910390fd5b5b85600073ffffffffffffffffffffffffffffffffffffffff168173ffffffffffffffffffffffffffffffffffffffff16141561194b576040517f08c379a000000000000000000000000000000000000000000000000000000000815260040161194290614605565b60405180910390fd5b6002600089815260200190815260200160002060060160019054906101000a900460ff16156119af576040517f08c379a00000000000000000000000000000000000000000000000000000000081526004016119a6906146c7565b60405180910390fd5b6001600260008a815260200190815260200160002060060160006101000a81548160ff02191690831515021790555086600260008a815260200190815260200160002060000160006101000a81548173ffffffffffffffffffffffffffffffffffffffff021916908373ffffffffffffffffffffffffffffffffffffffff16021790555085600260008a8152602001908152602001600020600501819055507f7f8b8b68ebd95ed5f82f3fae981c59ed57bcc3f9e43ae3c49a98963ac0f5bf1c886001604051611a809291906146e7565b60405180910390a15050505050505050565b7f000000000000000000000000000000000000000000000000000000000000000081565b80600360008473ffffffffffffffffffffffffffffffffffffffff1673ffffffffffffffffffffffffffffffffffffffff16815260200190815260200160002060003373ffffffffffffffffffffffffffffffffffffffff1673ffffffffffffffffffffffffffffffffffffffff168152602001908152602001600020541015611b75576040517f08c379a0000000000000000000000000000000000000000000000000000000008152600401611b6c9061475c565b60405180910390fd5b80600360008473ffffffffffffffffffffffffffffffffffffffff1673ffffffffffffffffffffffffffffffffffffffff16815260200190815260200160002060003373ffffffffffffffffffffffffffffffffffffffff1673ffffffffffffffffffffffffffffffffffffffff1681526020019081526020016000206000828254611c01919061477c565b925050819055508173ffffffffffffffffffffffffffffffffffffffff1663a9059cbb33836040518363ffffffff1660e01b8152600401611c43929190614144565b6020604051808303816000875af1158015611c62573d6000803e3d6000fd5b505050506040513d601f19601f82011682018060405250810190611c869190614199565b507f9b1bfa7fa9ee420a16e124f794c35ac9f90472acc99140eb2f6447c714cad8eb823383604051611cba939291906144c1565b60405180910390a15050565b33816001600082815260200190815260200160002060010160009054906101000a900473ffffffffffffffffffffffffffffffffffffffff1673ffffffffffffffffffffffffffffffffffffffff168273ffffffffffffffffffffffffffffffffffffffff1614611d6c576040517f08c379a0000000000000000000000000000000000000000000000000000000008152600401611d6390613e9c565b60405180910390fd5b611d7583612bb9565b6001600084815260200190815260200160002060030160009054906101000a900473ffffffffffffffffffffffffffffffffffffffff1673ffffffffffffffffffffffffffffffffffffffff166323b872dd333060016000888152602001908152602001600020600601546040518463ffffffff1660e01b8152600401611dfe939291906144c1565b6020604051808303816000875af1158015611e1d573d6000803e3d6000fd5b505050506040513d601f19601f82011682018060405250810190611e419190614199565b50505050565b33816001600082815260200190815260200160002060000160009054906101000a900473ffffffffffffffffffffffffffffffffffffffff1673ffffffffffffffffffffffffffffffffffffffff168273ffffffffffffffffffffffffffffffffffffffff1614611eed576040517f08c379a0000000000000000000000000000000000000000000000000000000008152600401611ee490613fe0565b60405180910390fd5b82600080600260008481526020019081526020016000206003015411611f48576040517f08c379a0000000000000000000000000000000000000000000000000000000008152600401611f3f906147fc565b60405180910390fd5b8015611fac574260026000848152602001908152602001600020600301541015611fa7576040517f08c379a0000000000000000000000000000000000000000000000000000000008152600401611f9e90614868565b60405180910390fd5b612005565b42600260008481526020019081526020016000206003015410612004576040517f08c379a0000000000000000000000000000000000000000000000000000000008152600401611ffb906148d4565b60405180910390fd5b5b600073ffffffffffffffffffffffffffffffffffffffff166001600087815260200190815260200160002060010160009054906101000a900473ffffffffffffffffffffffffffffffffffffffff1673ffffffffffffffffffffffffffffffffffffffff1614806120b857504260026000878152602001908152602001600020600401541080156120b757506002600086815260200190815260200160002060060160019054906101000a900460ff16155b5b6120f7576040517f08c379a00000000000000000000000000000000000000000000000000000000081526004016120ee90614940565b60405180910390fd5b6121013386613195565b5050505050565b61211233826132c1565b6002600082815260200190815260200160002060000160009054906101000a900473ffffffffffffffffffffffffffffffffffffffff1673ffffffffffffffffffffffffffffffffffffffff166323b872dd333060026000868152602001908152602001600020600501546040518463ffffffff1660e01b815260040161219b939291906144c1565b6020604051808303816000875af11580156121ba573d6000803e3d6000fd5b505050506040513d601f19601f820116820180604052508101906121de9190614199565b5050565b8360018061229457600073ffffffffffffffffffffffffffffffffffffffff166001600084815260200190815260200160002060010160009054906101000a900473ffffffffffffffffffffffffffffffffffffffff1673ffffffffffffffffffffffffffffffffffffffff161461228f576040517f08c379a00000000000000000000000000000000000000000000000000000000081526004016122869061404c565b60405180910390fd5b61233b565b600073ffffffffffffffffffffffffffffffffffffffff166001600084815260200190815260200160002060010160009054906101000a900473ffffffffffffffffffffffffffffffffffffffff1673ffffffffffffffffffffffffffffffffffffffff16141561233a576040517f08c379a0000000000000000000000000000000000000000000000000000000008152600401612331906140b8565b60405180910390fd5b5b85600080156123a1574260026000848152602001908152602001600020600401541061239c576040517f08c379a000000000000000000000000000000000000000000000000000000000815260040161239390613f08565b60405180910390fd5b6123fb565b42600260008481526020019081526020016000206004015410156123fa576040517f08c379a00000000000000000000000000000000000000000000000000000000081526004016123f190613f74565b60405180910390fd5b5b6002600089815260200190815260200160002060060160019054906101000a900460ff161561245f576040517f08c379a0000000000000000000000000000000000000000000000000000000008152600401612456906146c7565b60405180910390fd5b6001600260008a815260200190815260200160002060060160016101000a81548160ff0219169083151502179055506000600160008a8152602001908152602001600020905060008088888101906124b791906149c7565b915091506124e98360030160009054906101000a900473ffffffffffffffffffffffffffffffffffffffff1630613697565b600460008560030160009054906101000a900473ffffffffffffffffffffffffffffffffffffffff1673ffffffffffffffffffffffffffffffffffffffff1673ffffffffffffffffffffffffffffffffffffffff16815260200190815260200160002081905550600083600501549050600084600501819055508360020160009054906101000a900473ffffffffffffffffffffffffffffffffffffffff1673ffffffffffffffffffffffffffffffffffffffff1663095ea7b37f0000000000000000000000000000000000000000000000000000000000000000836040518363ffffffff1660e01b81526004016125e2929190614144565b6020604051808303816000875af1158015612601573d6000803e3d6000fd5b505050506040513d601f19601f820116820180604052508101906126259190614199565b5060006040518061010001604052808660020160009054906101000a900473ffffffffffffffffffffffffffffffffffffffff1673ffffffffffffffffffffffffffffffffffffffff1681526020018660030160009054906101000a900473ffffffffffffffffffffffffffffffffffffffff1673ffffffffffffffffffffffffffffffffffffffff1681526020018562ffffff1681526020013073ffffffffffffffffffffffffffffffffffffffff168152602001600a426126e89190614625565b81526020018381526020018d81526020018473ffffffffffffffffffffffffffffffffffffffff16815250905060007f000000000000000000000000000000000000000000000000000000000000000073ffffffffffffffffffffffffffffffffffffffff1663414bf389836040518263ffffffff1660e01b81526004016127709190614ae5565b6020604051808303816000875af115801561278f573d6000803e3d6000fd5b505050506040513d601f19601f820116820180604052508101906127b39190614b01565b905060008660060154826127c7919061477c565b11612807576040517f08c379a00000000000000000000000000000000000000000000000000000000081526004016127fe90614b7a565b60405180910390fd5b60006128378760030160009054906101000a900473ffffffffffffffffffffffffffffffffffffffff1630613697565b9050600460008860030160009054906101000a900473ffffffffffffffffffffffffffffffffffffffff1673ffffffffffffffffffffffffffffffffffffffff1673ffffffffffffffffffffffffffffffffffffffff1681526020019081526020016000205481116128de576040517f08c379a00000000000000000000000000000000000000000000000000000000081526004016128d590614b7a565b60405180910390fd5b8660060154826128ee919061477c565b600360008960030160009054906101000a900473ffffffffffffffffffffffffffffffffffffffff1673ffffffffffffffffffffffffffffffffffffffff1673ffffffffffffffffffffffffffffffffffffffff16815260200190815260200160002060008960010160009054906101000a900473ffffffffffffffffffffffffffffffffffffffff1673ffffffffffffffffffffffffffffffffffffffff1673ffffffffffffffffffffffffffffffffffffffff16815260200190815260200160002060008282546129c19190614625565b925050819055508e8760010160009054906101000a900473ffffffffffffffffffffffffffffffffffffffff1673ffffffffffffffffffffffffffffffffffffffff167f5a20425ee28c08dfaf53c051ce9fb1fdfedad2949379924d3313a74c2c61a2a560405160405180910390a3505050505050505050505050505050565b81816001600082815260200190815260200160002060010160009054906101000a900473ffffffffffffffffffffffffffffffffffffffff1673ffffffffffffffffffffffffffffffffffffffff168273ffffffffffffffffffffffffffffffffffffffff1614612ae7576040517f08c379a0000000000000000000000000000000000000000000000000000000008152600401612ade90613e9c565b60405180910390fd5b6002600084815260200190815260200160002060060160009054906101000a900460ff16612b4a576040517f08c379a0000000000000000000000000000000000000000000000000000000008152600401612b41906146c7565b60405180910390fd5b60006002600085815260200190815260200160002060060160006101000a81548160ff0219169083151502179055507f7f8b8b68ebd95ed5f82f3fae981c59ed57bcc3f9e43ae3c49a98963ac0f5bf1c836000604051612bab9291906146e7565b60405180910390a150505050565b8060008015612c1f5742600260008481526020019081526020016000206004015410612c1a576040517f08c379a0000000000000000000000000000000000000000000000000000000008152600401612c1190613f08565b60405180910390fd5b612c79565b4260026000848152602001908152602001600020600401541015612c78576040517f08c379a0000000000000000000000000000000000000000000000000000000008152600401612c6f90613f74565b60405180910390fd5b5b60006001600085815260200190815260200160002060010160009054906101000a900473ffffffffffffffffffffffffffffffffffffffff1690506002600085815260200190815260200160002060060160019054906101000a900460ff1615612d18576040517f08c379a0000000000000000000000000000000000000000000000000000000008152600401612d0f906146c7565b60405180910390fd5b60016002600086815260200190815260200160002060060160016101000a81548160ff021916908315150217905550612d518185613195565b838173ffffffffffffffffffffffffffffffffffffffff167f5a20425ee28c08dfaf53c051ce9fb1fdfedad2949379924d3313a74c2c61a2a560405160405180910390a350505050565b80600073ffffffffffffffffffffffffffffffffffffffff166001600083815260200190815260200160002060020160009054906101000a900473ffffffffffffffffffffffffffffffffffffffff1673ffffffffffffffffffffffffffffffffffffffff161415612e42576040517f08c379a0000000000000000000000000000000000000000000000000000000008152600401612e3990614be6565b60405180910390fd5b81600080612ef457600073ffffffffffffffffffffffffffffffffffffffff166001600084815260200190815260200160002060010160009054906101000a900473ffffffffffffffffffffffffffffffffffffffff1673ffffffffffffffffffffffffffffffffffffffff1614612eef576040517f08c379a0000000000000000000000000000000000000000000000000000000008152600401612ee69061404c565b60405180910390fd5b612f9b565b600073ffffffffffffffffffffffffffffffffffffffff166001600084815260200190815260200160002060010160009054906101000a900473ffffffffffffffffffffffffffffffffffffffff1673ffffffffffffffffffffffffffffffffffffffff161415612f9a576040517f08c379a0000000000000000000000000000000000000000000000000000000008152600401612f91906140b8565b60405180910390fd5b5b8360016000600260008481526020019081526020016000206003015411612ff7576040517f08c379a0000000000000000000000000000000000000000000000000000000008152600401612fee906147fc565b60405180910390fd5b801561305b574260026000848152602001908152602001600020600301541015613056576040517f08c379a000000000000000000000000000000000000000000000000000000000815260040161304d90614868565b60405180910390fd5b6130b4565b426002600084815260200190815260200160002060030154106130b3576040517f08c379a00000000000000000000000000000000000000000000000000000000081526004016130aa906148d4565b60405180910390fd5b5b866001600088815260200190815260200160002060010160006101000a81548173ffffffffffffffffffffffffffffffffffffffff021916908373ffffffffffffffffffffffffffffffffffffffff160217905550426002600088815260200190815260200160002060030181905550858773ffffffffffffffffffffffffffffffffffffffff167feb353a6084f42c4569f7fe0e62ec9a9a107f0453a8f76735dd47ef68dcfcce3f60405160405180910390a350505050505050565b6001816000016000828254019250508190555050565b600081600001549050919050565b600060016000838152602001908152602001600020600501549050600060016000848152602001908152602001600020600501819055506001600083815260200190815260200160002060020160009054906101000a900473ffffffffffffffffffffffffffffffffffffffff1673ffffffffffffffffffffffffffffffffffffffff1663a9059cbb84836040518363ffffffff1660e01b815260040161323d929190614144565b6020604051808303816000875af115801561325c573d6000803e3d6000fd5b505050506040513d601f19601f820116820180604052508101906132809190614199565b507f6349409af923ab04f6ba4cd71740fcf0de9efb3a66822fd753b51741914227cc8383836040516132b4939291906141c6565b60405180910390a1505050565b80600073ffffffffffffffffffffffffffffffffffffffff166001600083815260200190815260200160002060020160009054906101000a900473ffffffffffffffffffffffffffffffffffffffff1673ffffffffffffffffffffffffffffffffffffffff161415613368576040517f08c379a000000000000000000000000000000000000000000000000000000000815260040161335f90614be6565b60405180910390fd5b81600080156133ce57426002600084815260200190815260200160002060040154106133c9576040517f08c379a00000000000000000000000000000000000000000000000000000000081526004016133c090613f08565b60405180910390fd5b613428565b4260026000848152602001908152602001600020600401541015613427576040517f08c379a000000000000000000000000000000000000000000000000000000000815260040161341e90613f74565b60405180910390fd5b5b6002600085815260200190815260200160002060060160009054906101000a900460ff1661348b576040517f08c379a000000000000000000000000000000000000000000000000000000000815260040161348290614c52565b60405180910390fd5b6002600085815260200190815260200160002060050154600360006002600088815260200190815260200160002060000160009054906101000a900473ffffffffffffffffffffffffffffffffffffffff1673ffffffffffffffffffffffffffffffffffffffff1673ffffffffffffffffffffffffffffffffffffffff16815260200190815260200160002060006001600088815260200190815260200160002060010160009054906101000a900473ffffffffffffffffffffffffffffffffffffffff1673ffffffffffffffffffffffffffffffffffffffff1673ffffffffffffffffffffffffffffffffffffffff16815260200190815260200160002060008282546135999190614625565b92505081905550838573ffffffffffffffffffffffffffffffffffffffff166001600087815260200190815260200160002060010160009054906101000a900473ffffffffffffffffffffffffffffffffffffffff1673ffffffffffffffffffffffffffffffffffffffff167fddf252ad1be2c89b69c2b068fc378daa952ba7f163c4a11628f55a4df523b3ef60405160405180910390a4846001600086815260200190815260200160002060010160006101000a81548173ffffffffffffffffffffffffffffffffffffffff021916908373ffffffffffffffffffffffffffffffffffffffff1602179055506136908585612a41565b5050505050565b60008060008473ffffffffffffffffffffffffffffffffffffffff166370a0823160e01b856040516024016136cc9190613de4565b604051602081830303815290604052907bffffffffffffffffffffffffffffffffffffffffffffffffffffffff19166020820180517bffffffffffffffffffffffffffffffffffffffffffffffffffffffff83818316178352505050506040516137369190614cae565b600060405180830381855afa9150503d8060008114613771576040519150601f19603f3d011682016040523d82523d6000602084013e613776565b606091505b509150915081801561378a57506020815110155b61379357600080fd5b808060200190518101906137a79190614b01565b9250505092915050565b600080fd5b600080fd5b60007fffffffff0000000000000000000000000000000000000000000000000000000082169050919050565b6137f0816137bb565b81146137fb57600080fd5b50565b60008135905061380d816137e7565b92915050565b600060208284031215613829576138286137b1565b5b6000613837848285016137fe565b91505092915050565b60008115159050919050565b61385581613840565b82525050565b6000602082019050613870600083018461384c565b92915050565b6000819050919050565b61388981613876565b811461389457600080fd5b50565b6000813590506138a681613880565b92915050565b6000602082840312156138c2576138c16137b1565b5b60006138d084828501613897565b91505092915050565b600073ffffffffffffffffffffffffffffffffffffffff82169050919050565b6000613904826138d9565b9050919050565b613914816138f9565b82525050565b61392381613876565b82525050565b60006101008201905061393f600083018b61390b565b61394c602083018a61390b565b613959604083018961390b565b613966606083018861391a565b613973608083018761391a565b61398060a083018661391a565b61398d60c083018561384c565b61399a60e083018461384c565b9998505050505050505050565b600080fd5b600080fd5b600080fd5b60008083601f8401126139cc576139cb6139a7565b5b8235905067ffffffffffffffff8111156139e9576139e86139ac565b5b602083019150836001820283011115613a0557613a046139b1565b5b9250929050565b60008060008060608587031215613a2657613a256137b1565b5b6000613a3487828801613897565b9450506020613a4587828801613897565b935050604085013567ffffffffffffffff811115613a6657613a656137b6565b5b613a72878288016139b6565b925092505092959194509250565b613a89816138f9565b8114613a9457600080fd5b50565b600081359050613aa681613a80565b92915050565b60008060408385031215613ac357613ac26137b1565b5b6000613ad185828601613a97565b9250506020613ae285828601613a97565b9150509250929050565b6000602082019050613b01600083018461391a565b92915050565b60008060408385031215613b1e57613b1d6137b1565b5b6000613b2c85828601613897565b9250506020613b3d85828601613a97565b9150509250929050565b600061010082019050613b5d600083018b61390b565b613b6a602083018a61390b565b613b77604083018961390b565b613b84606083018861390b565b613b91608083018761390b565b613b9e60a083018661391a565b613bab60c083018561391a565b613bb860e083018461391a565b9998505050505050505050565b60008060208385031215613bdc57613bdb6137b1565b5b600083013567ffffffffffffffff811115613bfa57613bf96137b6565b5b613c06858286016139b6565b92509250509250929050565b600081519050919050565b600082825260208201905092915050565b60005b83811015613c4c578082015181840152602081019050613c31565b83811115613c5b576000848401525b50505050565b6000601f19601f8301169050919050565b6000613c7d82613c12565b613c878185613c1d565b9350613c97818560208601613c2e565b613ca081613c61565b840191505092915050565b6000604082019050613cc0600083018561384c565b8181036020830152613cd28184613c72565b90509392505050565b600080600080600080600080610100898b031215613cfc57613cfb6137b1565b5b6000613d0a8b828c01613a97565b9850506020613d1b8b828c01613a97565b9750506040613d2c8b828c01613a97565b9650506060613d3d8b828c01613897565b9550506080613d4e8b828c01613897565b94505060a0613d5f8b828c01613897565b93505060c0613d708b828c01613897565b92505060e0613d818b828c01613897565b9150509295985092959890939650565b600080600060608486031215613daa57613da96137b1565b5b6000613db886828701613897565b9350506020613dc986828701613a97565b9250506040613dda86828701613897565b9150509250925092565b6000602082019050613df9600083018461390b565b92915050565b60008060408385031215613e1657613e156137b1565b5b6000613e2485828601613a97565b9250506020613e3585828601613897565b9150509250929050565b600082825260208201905092915050565b7f4433000000000000000000000000000000000000000000000000000000000000600082015250565b6000613e86600283613e3f565b9150613e9182613e50565b602082019050919050565b60006020820190508181036000830152613eb581613e79565b9050919050565b7f4438000000000000000000000000000000000000000000000000000000000000600082015250565b6000613ef2600283613e3f565b9150613efd82613ebc565b602082019050919050565b60006020820190508181036000830152613f2181613ee5565b9050919050565b7f4439000000000000000000000000000000000000000000000000000000000000600082015250565b6000613f5e600283613e3f565b9150613f6982613f28565b602082019050919050565b60006020820190508181036000830152613f8d81613f51565b9050919050565b7f4432000000000000000000000000000000000000000000000000000000000000600082015250565b6000613fca600283613e3f565b9150613fd582613f94565b602082019050919050565b60006020820190508181036000830152613ff981613fbd565b9050919050565b7f4431330000000000000000000000000000000000000000000000000000000000600082015250565b6000614036600383613e3f565b915061404182614000565b602082019050919050565b6000602082019050818103600083015261406581614029565b9050919050565b7f4431320000000000000000000000000000000000000000000000000000000000600082015250565b60006140a2600383613e3f565b91506140ad8261406c565b602082019050919050565b600060208201905081810360008301526140d181614095565b9050919050565b7f4431310000000000000000000000000000000000000000000000000000000000600082015250565b600061410e600383613e3f565b9150614119826140d8565b602082019050919050565b6000602082019050818103600083015261413d81614101565b9050919050565b6000604082019050614159600083018561390b565b614166602083018461391a565b9392505050565b61417681613840565b811461418157600080fd5b50565b6000815190506141938161416d565b92915050565b6000602082840312156141af576141ae6137b1565b5b60006141bd84828501614184565b91505092915050565b60006060820190506141db600083018661390b565b6141e8602083018561391a565b6141f5604083018461391a565b949350505050565b600080fd5b600080fd5b6000808585111561421b5761421a6141fd565b5b8386111561422c5761422b614202565b5b6001850283019150848603905094509492505050565b60008060408385031215614259576142586137b1565b5b600061426785828601613897565b925050602061427885828601613897565b9150509250929050565b600069ffffffffffffffffffff82169050919050565b6142a181614282565b81146142ac57600080fd5b50565b6000815190506142be81614298565b92915050565b6000819050919050565b6142d7816142c4565b81146142e257600080fd5b50565b6000815190506142f4816142ce565b92915050565b60008151905061430981613880565b92915050565b600080600080600060a0868803121561432b5761432a6137b1565b5b6000614339888289016142af565b955050602061434a888289016142e5565b945050604061435b888289016142fa565b935050606061436c888289016142fa565b925050608061437d888289016142af565b9150509295509295909350565b7f4f7074696f6e206973204f544d00000000000000000000000000000000000000600082015250565b60006143c0600d83613e3f565b91506143cb8261438a565b602082019050919050565b600060208201905081810360008301526143ef816143b3565b9050919050565b6000813590506144058161416d565b92915050565b600060208284031215614421576144206137b1565b5b600061442f848285016143f6565b91505092915050565b7f4e487b7100000000000000000000000000000000000000000000000000000000600052601160045260246000fd5b600061447282613876565b915061447d83613876565b9250817fffffffffffffffffffffffffffffffffffffffffffffffffffffffffffffffff04831182151516156144b6576144b5614438565b5b828202905092915050565b60006060820190506144d6600083018661390b565b6144e3602083018561390b565b6144f0604083018461391a565b949350505050565b7f4431300000000000000000000000000000000000000000000000000000000000600082015250565b600061452e600383613e3f565b9150614539826144f8565b602082019050919050565b6000602082019050818103600083015261455d81614521565b9050919050565b600081359050614573816142ce565b92915050565b600080604083850312156145905761458f6137b1565b5b600061459e85828601613897565b92505060206145af85828601614564565b9150509250929050565b7f5472616e73616374696f6e20746f206164647265737328302921000000000000600082015250565b60006145ef601a83613e3f565b91506145fa826145b9565b602082019050919050565b6000602082019050818103600083015261461e816145e2565b9050919050565b600061463082613876565b915061463b83613876565b9250827fffffffffffffffffffffffffffffffffffffffffffffffffffffffffffffffff038211156146705761466f614438565b5b828201905092915050565b7f4437000000000000000000000000000000000000000000000000000000000000600082015250565b60006146b1600283613e3f565b91506146bc8261467b565b602082019050919050565b600060208201905081810360008301526146e0816146a4565b9050919050565b60006040820190506146fc600083018561391a565b614709602083018461384c565b9392505050565b7f4431350000000000000000000000000000000000000000000000000000000000600082015250565b6000614746600383613e3f565b915061475182614710565b602082019050919050565b6000602082019050818103600083015261477581614739565b9050919050565b600061478782613876565b915061479283613876565b9250828210156147a5576147a4614438565b5b828203905092915050565b7f4f7074696f6e20706172616d6174657273206e6f742073657474656420796574600082015250565b60006147e6602083613e3f565b91506147f1826147b0565b602082019050919050565b60006020820190508181036000830152614815816147d9565b9050919050565b7f4f66666572206578706972656400000000000000000000000000000000000000600082015250565b6000614852600d83613e3f565b915061485d8261481c565b602082019050919050565b6000602082019050818103600083015261488181614845565b9050919050565b7f4f66666572206e6f742065787069726564207965742100000000000000000000600082015250565b60006148be601683613e3f565b91506148c982614888565b602082019050919050565b600060208201905081810360008301526148ed816148b1565b9050919050565b7f4434000000000000000000000000000000000000000000000000000000000000600082015250565b600061492a600283613e3f565b9150614935826148f4565b602082019050919050565b600060208201905081810360008301526149598161491d565b9050919050565b600062ffffff82169050919050565b61497881614960565b811461498357600080fd5b50565b6000813590506149958161496f565b92915050565b6149a4816138d9565b81146149af57600080fd5b50565b6000813590506149c18161499b565b92915050565b600080604083850312156149de576149dd6137b1565b5b60006149ec85828601614986565b92505060206149fd858286016149b2565b9150509250929050565b614a10816138f9565b82525050565b614a1f81614960565b82525050565b614a2e81613876565b82525050565b614a3d816138d9565b82525050565b61010082016000820151614a5a6000850182614a07565b506020820151614a6d6020850182614a07565b506040820151614a806040850182614a16565b506060820151614a936060850182614a07565b506080820151614aa66080850182614a25565b5060a0820151614ab960a0850182614a25565b5060c0820151614acc60c0850182614a25565b5060e0820151614adf60e0850182614a34565b50505050565b600061010082019050614afb6000830184614a43565b92915050565b600060208284031215614b1757614b166137b1565b5b6000614b25848285016142fa565b91505092915050565b7f4e6f2070726f66697473206761696e6564000000000000000000000000000000600082015250565b6000614b64601183613e3f565b9150614b6f82614b2e565b602082019050919050565b60006020820190508181036000830152614b9381614b57565b9050919050565b7f4f7074696f6e20646f6573206e6f74206578697374732e000000000000000000600082015250565b6000614bd0601783613e3f565b9150614bdb82614b9a565b602082019050919050565b60006020820190508181036000830152614bff81614bc3565b9050919050565b7f4431340000000000000000000000000000000000000000000000000000000000600082015250565b6000614c3c600383613e3f565b9150614c4782614c06565b602082019050919050565b60006020820190508181036000830152614c6b81614c2f565b9050919050565b600081905092915050565b6000614c8882613c12565b614c928185614c72565b9350614ca2818560208601613c2e565b80840191505092915050565b6000614cba8284614c7d565b91508190509291505056fea26469706673582212205766bc938f3b36da43b76333dcb8acbdea95ef3fcaa065f49e5b3f8d18c5afe964736f6c634300080a0033",
  "devdoc": {
    "kind": "dev",
    "methods": {
      "buyOption(uint256)": {
        "details": "change participator address to msg.sender and delist the option from secondary market",
        "params": {
          "optionId": "ID of the option"
        }
      },
      "checkUpkeep(bytes)": {
        "details": "To ensure that it is never called, you may want to add the cannotExecute modifier from KeeperBase to your implementation of this method.",
        "params": {
          "checkData": "specified in the upkeep registration so it is always the same for a registered upkeep. This can easily be broken down into specific arguments using `abi.decode`, so multiple upkeeps can be registered on the same contract and easily differentiated by the contract."
        },
        "returns": {
          "performData": "bytes that the keeper should call performUpkeep with, if upkeep is needed. If you would like to encode data to decode later, try `abi.encode`.",
          "upkeepNeeded": "boolean to indicate whether the keeper should call performUpkeep or not."
        }
      },
      "delistOption(uint256)": {
        "details": "sets listed field of option to false in option mapping, only callable by the participator",
        "params": {
          "optionId": "ID of the option"
        }
      },
      "exerciseOption(uint256)": {
        "details": "transfers the counter assets to contract and transfers the colleteral to msg.sender only callable by the participator",
        "params": {
          "optionId": "ID of the option"
        }
      },
      "listOption(uint256,address,uint256)": {
        "details": "sets listed field of option to true, asset address and amount in option mapping",
        "params": {
          "optionId": "ID of the option, asset Address of the asset that seller wants to receive, amount Amount of asset"
        }
      },
      "offerOption(address,address,address,uint256,uint256,uint256,uint256,uint256)": {
        "details": "locks the colleteral, save the OptionSpecs to mapping with optionId and emits OfferEvent",
        "params": {
          "colleteral": "Address of colleteral asset, counterAsset Address of counter asset, ",
          "premiumAsset": "Address of premium asset, amountOfColleteral Amount of colleteral to be locked and promised"
        }
      },
      "participateOption(uint256)": {
        "details": "transfers premium asset to contract, sets isParticipated to true and participator to msg.sender options mapping",
        "params": {
          "optionId": "ID of the option"
        }
      },
      "performUpkeep(bytes)": {
        "details": "The input to this method should not be trusted, and the caller of the method should not even be restricted to any single registry. Anyone should be able call it, and the input should be validated, there is no guarantee that the data passed in is the performData returned from checkUpkeep. This could happen due to malicious keepers, racing keepers, or simply a state change while the performUpkeep transaction is waiting for confirmation. Always validate the data passed in.",
        "params": {
          "performData": "is the data which was passed back from the checkData simulation. If it is encoded, it can easily be decoded into other types by calling `abi.decode`. This data should not be trusted, and should be validated against the contract's current state."
        }
      },
      "refundColleteral(uint256)": {
        "details": "refund the colleteral only if option is not participated or option expires worthless",
        "params": {
          "optionId": "ID of the option"
        }
      },
      "supportsInterface(bytes4)": {
        "details": "Returns true if this contract implements the interface defined by `interfaceId`. See the corresponding https://eips.ethereum.org/EIPS/eip-165#how-interfaces-are-identified[EIP section] to learn more about how these ids are created. This function call must use less than 30 000 gas."
      },
      "withdraw(address,uint256)": {
        "details": "transfer the token that option seller should receive",
        "params": {
          "amount": "Amount of thw token received",
          "asset": "Address of the token to receive"
        }
      },
      "withdrawCA(uint256)": {
        "details": "transfer the counter asset to initiator only if option is exercised",
        "params": {
          "optionId": "ID of the option, receiver Address of buyer of the option  contract"
        }
      },
      "withdrawPremium(uint256)": {
        "details": "transfers the premium asset if there is a participant in option contract only callable by the option initiator",
        "params": {
          "optionId": "ID of the option"
        }
      }
    },
    "version": 1
  },
  "userdoc": {
    "kind": "user",
    "methods": {
      "buyOption(uint256)": {
        "notice": "buy the option from secondary market"
      },
      "checkUpkeep(bytes)": {
        "notice": "method that is simulated by the keepers to see if any work actually needs to be performed. This method does does not actually need to be executable, and since it is only ever simulated it can consume lots of gas."
      },
      "delistOption(uint256)": {
        "notice": "delists the option from secondary market"
      },
      "exerciseOption(uint256)": {
        "notice": "exercies the option"
      },
      "listOption(uint256,address,uint256)": {
        "notice": "list the option in secondary market"
      },
      "offerOption(address,address,address,uint256,uint256,uint256,uint256,uint256)": {
        "notice": "publish an offer for the option contract"
      },
      "participateOption(uint256)": {
        "notice": "participate in option contract by paying the option premium"
      },
      "performUpkeep(bytes)": {
        "notice": "method that is actually executed by the keepers, via the registry. The data returned by the checkUpkeep simulation will be passed into this method to actually be executed."
      },
      "refundColleteral(uint256)": {
        "notice": "withdraw colleteral only if no ones participates in offer period or option expires worthless"
      },
      "withdraw(address,uint256)": {
        "notice": "withdraw the amount that seller of the option should receive"
      },
      "withdrawCA(uint256)": {
        "notice": "transfers the counter asset to caller"
      },
      "withdrawPremium(uint256)": {
        "notice": "withdraw the option premium "
      }
    },
    "version": 1
  },
  "storageLayout": {
    "storage": [
      {
        "astId": 4126,
        "contract": "contracts/OpWiz/extensions/OpWizFlashExerciseWithKeepers.sol:OpWizFlashLoanWithKeepers",
        "label": "counter",
        "offset": 0,
        "slot": "0",
        "type": "t_struct(Counter)1930_storage"
      },
      {
        "astId": 4131,
        "contract": "contracts/OpWiz/extensions/OpWizFlashExerciseWithKeepers.sol:OpWizFlashLoanWithKeepers",
        "label": "options",
        "offset": 0,
        "slot": "1",
        "type": "t_mapping(t_uint256,t_struct(Option)6096_storage)"
      },
      {
        "astId": 4136,
        "contract": "contracts/OpWiz/extensions/OpWizFlashExerciseWithKeepers.sol:OpWizFlashLoanWithKeepers",
        "label": "optionDetails",
        "offset": 0,
        "slot": "2",
        "type": "t_mapping(t_uint256,t_struct(OptionDetails)6113_storage)"
      },
      {
        "astId": 4142,
        "contract": "contracts/OpWiz/extensions/OpWizFlashExerciseWithKeepers.sol:OpWizFlashLoanWithKeepers",
        "label": "withdrawAllowance",
        "offset": 0,
        "slot": "3",
        "type": "t_mapping(t_address,t_mapping(t_address,t_uint256))"
      },
      {
        "astId": 5372,
        "contract": "contracts/OpWiz/extensions/OpWizFlashExerciseWithKeepers.sol:OpWizFlashLoanWithKeepers",
        "label": "lastBalances",
        "offset": 0,
        "slot": "4",
        "type": "t_mapping(t_address,t_uint256)"
      }
    ],
    "types": {
      "t_address": {
        "encoding": "inplace",
        "label": "address",
        "numberOfBytes": "20"
      },
      "t_bool": {
        "encoding": "inplace",
        "label": "bool",
        "numberOfBytes": "1"
      },
      "t_mapping(t_address,t_mapping(t_address,t_uint256))": {
        "encoding": "mapping",
        "key": "t_address",
        "label": "mapping(address => mapping(address => uint256))",
        "numberOfBytes": "32",
        "value": "t_mapping(t_address,t_uint256)"
      },
      "t_mapping(t_address,t_uint256)": {
        "encoding": "mapping",
        "key": "t_address",
        "label": "mapping(address => uint256)",
        "numberOfBytes": "32",
        "value": "t_uint256"
      },
      "t_mapping(t_uint256,t_struct(Option)6096_storage)": {
        "encoding": "mapping",
        "key": "t_uint256",
        "label": "mapping(uint256 => struct IOpWizSimple.Option)",
        "numberOfBytes": "32",
        "value": "t_struct(Option)6096_storage"
      },
      "t_mapping(t_uint256,t_struct(OptionDetails)6113_storage)": {
        "encoding": "mapping",
        "key": "t_uint256",
        "label": "mapping(uint256 => struct IOpWizSimple.OptionDetails)",
        "numberOfBytes": "32",
        "value": "t_struct(OptionDetails)6113_storage"
      },
      "t_struct(Counter)1930_storage": {
        "encoding": "inplace",
        "label": "struct Counters.Counter",
        "members": [
          {
            "astId": 1929,
            "contract": "contracts/OpWiz/extensions/OpWizFlashExerciseWithKeepers.sol:OpWizFlashLoanWithKeepers",
            "label": "_value",
            "offset": 0,
            "slot": "0",
            "type": "t_uint256"
          }
        ],
        "numberOfBytes": "32"
      },
      "t_struct(Option)6096_storage": {
        "encoding": "inplace",
        "label": "struct IOpWizSimple.Option",
        "members": [
          {
            "astId": 6081,
            "contract": "contracts/OpWiz/extensions/OpWizFlashExerciseWithKeepers.sol:OpWizFlashLoanWithKeepers",
            "label": "initiator",
            "offset": 0,
            "slot": "0",
            "type": "t_address"
          },
          {
            "astId": 6083,
            "contract": "contracts/OpWiz/extensions/OpWizFlashExerciseWithKeepers.sol:OpWizFlashLoanWithKeepers",
            "label": "participant",
            "offset": 0,
            "slot": "1",
            "type": "t_address"
          },
          {
            "astId": 6085,
            "contract": "contracts/OpWiz/extensions/OpWizFlashExerciseWithKeepers.sol:OpWizFlashLoanWithKeepers",
            "label": "colleteral",
            "offset": 0,
            "slot": "2",
            "type": "t_address"
          },
          {
            "astId": 6087,
            "contract": "contracts/OpWiz/extensions/OpWizFlashExerciseWithKeepers.sol:OpWizFlashLoanWithKeepers",
            "label": "counterAsset",
            "offset": 0,
            "slot": "3",
            "type": "t_address"
          },
          {
            "astId": 6089,
            "contract": "contracts/OpWiz/extensions/OpWizFlashExerciseWithKeepers.sol:OpWizFlashLoanWithKeepers",
            "label": "premiumAsset",
            "offset": 0,
            "slot": "4",
            "type": "t_address"
          },
          {
            "astId": 6091,
            "contract": "contracts/OpWiz/extensions/OpWizFlashExerciseWithKeepers.sol:OpWizFlashLoanWithKeepers",
            "label": "amountOfColleteral",
            "offset": 0,
            "slot": "5",
            "type": "t_uint256"
          },
          {
            "astId": 6093,
            "contract": "contracts/OpWiz/extensions/OpWizFlashExerciseWithKeepers.sol:OpWizFlashLoanWithKeepers",
            "label": "amountOfCA",
            "offset": 0,
            "slot": "6",
            "type": "t_uint256"
          },
          {
            "astId": 6095,
            "contract": "contracts/OpWiz/extensions/OpWizFlashExerciseWithKeepers.sol:OpWizFlashLoanWithKeepers",
            "label": "premiumAmount",
            "offset": 0,
            "slot": "7",
            "type": "t_uint256"
          }
        ],
        "numberOfBytes": "256"
      },
      "t_struct(OptionDetails)6113_storage": {
        "encoding": "inplace",
        "label": "struct IOpWizSimple.OptionDetails",
        "members": [
          {
            "astId": 6098,
            "contract": "contracts/OpWiz/extensions/OpWizFlashExerciseWithKeepers.sol:OpWizFlashLoanWithKeepers",
            "label": "listAsset",
            "offset": 0,
            "slot": "0",
            "type": "t_address"
          },
          {
            "astId": 6100,
            "contract": "contracts/OpWiz/extensions/OpWizFlashExerciseWithKeepers.sol:OpWizFlashLoanWithKeepers",
            "label": "priceFeedAddress",
            "offset": 0,
            "slot": "1",
            "type": "t_address"
          },
          {
            "astId": 6102,
            "contract": "contracts/OpWiz/extensions/OpWizFlashExerciseWithKeepers.sol:OpWizFlashLoanWithKeepers",
            "label": "poolAddress",
            "offset": 0,
            "slot": "2",
            "type": "t_address"
          },
          {
            "astId": 6104,
            "contract": "contracts/OpWiz/extensions/OpWizFlashExerciseWithKeepers.sol:OpWizFlashLoanWithKeepers",
            "label": "offerEnd",
            "offset": 0,
            "slot": "3",
            "type": "t_uint256"
          },
          {
            "astId": 6106,
            "contract": "contracts/OpWiz/extensions/OpWizFlashExerciseWithKeepers.sol:OpWizFlashLoanWithKeepers",
            "label": "optionExpiry",
            "offset": 0,
            "slot": "4",
            "type": "t_uint256"
          },
          {
            "astId": 6108,
            "contract": "contracts/OpWiz/extensions/OpWizFlashExerciseWithKeepers.sol:OpWizFlashLoanWithKeepers",
            "label": "listAmount",
            "offset": 0,
            "slot": "5",
            "type": "t_uint256"
          },
          {
            "astId": 6110,
            "contract": "contracts/OpWiz/extensions/OpWizFlashExerciseWithKeepers.sol:OpWizFlashLoanWithKeepers",
            "label": "isListed",
            "offset": 0,
            "slot": "6",
            "type": "t_bool"
          },
          {
            "astId": 6112,
            "contract": "contracts/OpWiz/extensions/OpWizFlashExerciseWithKeepers.sol:OpWizFlashLoanWithKeepers",
            "label": "exercised",
            "offset": 1,
            "slot": "6",
            "type": "t_bool"
          }
        ],
        "numberOfBytes": "224"
      },
      "t_uint256": {
        "encoding": "inplace",
        "label": "uint256",
        "numberOfBytes": "32"
      }
    }
  }
}