{
  "_format": "hh-sol-artifact-1",
  "contractName": "OpWizChainlinkCompatible",
  "sourceName": "contracts/OpWiz/extensions/OpWizChainlinkCompatible.sol",
  "abi": [
    {
      "anonymous": false,
      "inputs": [
        {
          "indexed": true,
          "internalType": "address",
          "name": "participator",
          "type": "address"
        },
        {
          "indexed": true,
          "internalType": "uint256",
          "name": "optionId",
          "type": "uint256"
        }
      ],
      "name": "Exercise",
      "type": "event"
    },
    {
      "anonymous": false,
      "inputs": [
        {
          "indexed": false,
          "internalType": "uint256",
          "name": "optionId",
          "type": "uint256"
        },
        {
          "indexed": false,
          "internalType": "bool",
          "name": "isListed",
          "type": "bool"
        }
      ],
      "name": "Listed",
      "type": "event"
    },
    {
      "anonymous": false,
      "inputs": [
        {
          "indexed": true,
          "internalType": "address",
          "name": "initiator",
          "type": "address"
        },
        {
          "indexed": true,
          "internalType": "uint256",
          "name": "optionId",
          "type": "uint256"
        },
        {
          "indexed": false,
          "internalType": "bool",
          "name": "setted",
          "type": "bool"
        }
      ],
      "name": "Offer",
      "type": "event"
    },
    {
      "anonymous": false,
      "inputs": [
        {
          "indexed": true,
          "internalType": "address",
          "name": "participator",
          "type": "address"
        },
        {
          "indexed": true,
          "internalType": "uint256",
          "name": "optionId",
          "type": "uint256"
        }
      ],
      "name": "Participate",
      "type": "event"
    },
    {
      "anonymous": false,
      "inputs": [
        {
          "indexed": true,
          "internalType": "address",
          "name": "from",
          "type": "address"
        },
        {
          "indexed": true,
          "internalType": "address",
          "name": "to",
          "type": "address"
        },
        {
          "indexed": true,
          "internalType": "uint256",
          "name": "optionId",
          "type": "uint256"
        }
      ],
      "name": "Transfer",
      "type": "event"
    },
    {
      "anonymous": false,
      "inputs": [
        {
          "indexed": false,
          "internalType": "address",
          "name": "asset",
          "type": "address"
        },
        {
          "indexed": false,
          "internalType": "address",
          "name": "to",
          "type": "address"
        },
        {
          "indexed": false,
          "internalType": "uint256",
          "name": "amount",
          "type": "uint256"
        }
      ],
      "name": "Withdraw",
      "type": "event"
    },
    {
      "anonymous": false,
      "inputs": [
        {
          "indexed": false,
          "internalType": "address",
          "name": "to",
          "type": "address"
        },
        {
          "indexed": false,
          "internalType": "uint256",
          "name": "optionId",
          "type": "uint256"
        },
        {
          "indexed": false,
          "internalType": "uint256",
          "name": "amount",
          "type": "uint256"
        }
      ],
      "name": "WithdrawCA",
      "type": "event"
    },
    {
      "anonymous": false,
      "inputs": [
        {
          "indexed": false,
          "internalType": "address",
          "name": "to",
          "type": "address"
        },
        {
          "indexed": false,
          "internalType": "uint256",
          "name": "optionId",
          "type": "uint256"
        },
        {
          "indexed": false,
          "internalType": "uint256",
          "name": "amount",
          "type": "uint256"
        }
      ],
      "name": "WithdrawColleteral",
      "type": "event"
    },
    {
      "anonymous": false,
      "inputs": [
        {
          "indexed": false,
          "internalType": "address",
          "name": "to",
          "type": "address"
        },
        {
          "indexed": false,
          "internalType": "uint256",
          "name": "optionId",
          "type": "uint256"
        },
        {
          "indexed": false,
          "internalType": "uint256",
          "name": "amount",
          "type": "uint256"
        }
      ],
      "name": "WithdrawPremium",
      "type": "event"
    },
    {
      "inputs": [
        {
          "internalType": "uint256",
          "name": "optionId",
          "type": "uint256"
        }
      ],
      "name": "buyOption",
      "outputs": [],
      "stateMutability": "nonpayable",
      "type": "function"
    },
    {
      "inputs": [
        {
          "internalType": "bytes",
          "name": "checkData",
          "type": "bytes"
        }
      ],
      "name": "checkUpkeep",
      "outputs": [
        {
          "internalType": "bool",
          "name": "upkeepNeeded",
          "type": "bool"
        },
        {
          "internalType": "bytes",
          "name": "performData",
          "type": "bytes"
        }
      ],
      "stateMutability": "view",
      "type": "function"
    },
    {
      "inputs": [
        {
          "internalType": "uint256",
          "name": "optionId",
          "type": "uint256"
        }
      ],
      "name": "delistOption",
      "outputs": [],
      "stateMutability": "nonpayable",
      "type": "function"
    },
    {
      "inputs": [
        {
          "internalType": "uint256",
          "name": "optionId",
          "type": "uint256"
        }
      ],
      "name": "exerciseOption",
      "outputs": [],
      "stateMutability": "nonpayable",
      "type": "function"
    },
    {
      "inputs": [
        {
          "internalType": "uint256",
          "name": "optionId",
          "type": "uint256"
        },
        {
          "internalType": "address",
          "name": "asset",
          "type": "address"
        },
        {
          "internalType": "uint256",
          "name": "amount",
          "type": "uint256"
        }
      ],
      "name": "listOption",
      "outputs": [],
      "stateMutability": "nonpayable",
      "type": "function"
    },
    {
      "inputs": [
        {
          "internalType": "address",
          "name": "colleteral",
          "type": "address"
        },
        {
          "internalType": "address",
          "name": "counterAsset",
          "type": "address"
        },
        {
          "internalType": "address",
          "name": "premiumAsset",
          "type": "address"
        },
        {
          "internalType": "uint256",
          "name": "amountOfColleteral",
          "type": "uint256"
        },
        {
          "internalType": "uint256",
          "name": "amountOfCA",
          "type": "uint256"
        },
        {
          "internalType": "uint256",
          "name": "premiumAmount",
          "type": "uint256"
        },
        {
          "internalType": "uint256",
          "name": "optionExpiry",
          "type": "uint256"
        },
        {
          "internalType": "uint256",
          "name": "offerEnd",
          "type": "uint256"
        }
      ],
      "name": "offerOption",
      "outputs": [],
      "stateMutability": "nonpayable",
      "type": "function"
    },
    {
      "inputs": [
        {
          "internalType": "uint256",
          "name": "",
          "type": "uint256"
        }
      ],
      "name": "optionDetails",
      "outputs": [
        {
          "internalType": "address",
          "name": "listAsset",
          "type": "address"
        },
        {
          "internalType": "address",
          "name": "priceFeedAddress",
          "type": "address"
        },
        {
          "internalType": "address",
          "name": "poolAddress",
          "type": "address"
        },
        {
          "internalType": "uint256",
          "name": "offerEnd",
          "type": "uint256"
        },
        {
          "internalType": "uint256",
          "name": "optionExpiry",
          "type": "uint256"
        },
        {
          "internalType": "uint256",
          "name": "listAmount",
          "type": "uint256"
        },
        {
          "internalType": "bool",
          "name": "isListed",
          "type": "bool"
        },
        {
          "internalType": "bool",
          "name": "exercised",
          "type": "bool"
        }
      ],
      "stateMutability": "view",
      "type": "function"
    },
    {
      "inputs": [
        {
          "internalType": "uint256",
          "name": "",
          "type": "uint256"
        }
      ],
      "name": "options",
      "outputs": [
        {
          "internalType": "address",
          "name": "initiator",
          "type": "address"
        },
        {
          "internalType": "address",
          "name": "participant",
          "type": "address"
        },
        {
          "internalType": "address",
          "name": "colleteral",
          "type": "address"
        },
        {
          "internalType": "address",
          "name": "counterAsset",
          "type": "address"
        },
        {
          "internalType": "address",
          "name": "premiumAsset",
          "type": "address"
        },
        {
          "internalType": "uint256",
          "name": "amountOfColleteral",
          "type": "uint256"
        },
        {
          "internalType": "uint256",
          "name": "amountOfCA",
          "type": "uint256"
        },
        {
          "internalType": "uint256",
          "name": "premiumAmount",
          "type": "uint256"
        }
      ],
      "stateMutability": "view",
      "type": "function"
    },
    {
      "inputs": [
        {
          "internalType": "uint256",
          "name": "optionId",
          "type": "uint256"
        }
      ],
      "name": "participateOption",
      "outputs": [],
      "stateMutability": "nonpayable",
      "type": "function"
    },
    {
      "inputs": [
        {
          "internalType": "bytes",
          "name": "performData",
          "type": "bytes"
        }
      ],
      "name": "performUpkeep",
      "outputs": [],
      "stateMutability": "nonpayable",
      "type": "function"
    },
    {
      "inputs": [
        {
          "internalType": "uint256",
          "name": "optionId",
          "type": "uint256"
        }
      ],
      "name": "refundColleteral",
      "outputs": [],
      "stateMutability": "nonpayable",
      "type": "function"
    },
    {
      "inputs": [
        {
          "internalType": "uint256",
          "name": "optionId",
          "type": "uint256"
        },
        {
          "internalType": "address",
          "name": "_priceFeedAddress",
          "type": "address"
        }
      ],
      "name": "setPriceFeedAddress",
      "outputs": [],
      "stateMutability": "nonpayable",
      "type": "function"
    },
    {
      "inputs": [
        {
          "internalType": "bytes4",
          "name": "interfaceId",
          "type": "bytes4"
        }
      ],
      "name": "supportsInterface",
      "outputs": [
        {
          "internalType": "bool",
          "name": "",
          "type": "bool"
        }
      ],
      "stateMutability": "view",
      "type": "function"
    },
    {
      "inputs": [
        {
          "internalType": "bytes",
          "name": "message",
          "type": "bytes"
        },
        {
          "internalType": "bytes",
          "name": "sig",
          "type": "bytes"
        }
      ],
      "name": "verify",
      "outputs": [
        {
          "internalType": "address",
          "name": "signer",
          "type": "address"
        }
      ],
      "stateMutability": "pure",
      "type": "function"
    },
    {
      "inputs": [
        {
          "internalType": "address",
          "name": "asset",
          "type": "address"
        },
        {
          "internalType": "uint256",
          "name": "amount",
          "type": "uint256"
        }
      ],
      "name": "withdraw",
      "outputs": [],
      "stateMutability": "nonpayable",
      "type": "function"
    },
    {
      "inputs": [
        {
          "internalType": "address",
          "name": "",
          "type": "address"
        },
        {
          "internalType": "address",
          "name": "",
          "type": "address"
        }
      ],
      "name": "withdrawAllowance",
      "outputs": [
        {
          "internalType": "uint256",
          "name": "",
          "type": "uint256"
        }
      ],
      "stateMutability": "view",
      "type": "function"
    },
    {
      "inputs": [
        {
          "internalType": "uint256",
          "name": "optionId",
          "type": "uint256"
        }
      ],
      "name": "withdrawCA",
      "outputs": [],
      "stateMutability": "nonpayable",
      "type": "function"
    },
    {
      "inputs": [
        {
          "internalType": "uint256",
          "name": "optionId",
          "type": "uint256"
        }
      ],
      "name": "withdrawPremium",
      "outputs": [],
      "stateMutability": "nonpayable",
      "type": "function"
    }
  ],
  "bytecode": "0x608060405234801561001057600080fd5b50614df2806100206000396000f3fe608060405234801561001057600080fd5b50600436106101165760003560e01c806360514205116100a2578063f3fef3a311610071578063f3fef3a3146102fa578063f52f252614610316578063f7e83aee14610332578063f81cba0514610362578063fba225b91461037e57610116565b806360514205146102755780636e04ff0d146102915780637f8368da146102c2578063b91916a6146102de57610116565b806329a2755c116100e957806329a2755c146101ce5780633ea73cc7146101ea578063409e2205146102065780634585e33b1461023d57806357620cdf1461025957610116565b806301ffc9a71461011b578063065170f41461014b5780631f01664a14610182578063233ac0081461019e575b600080fd5b61013560048036038101906101309190613529565b61039a565b6040516101429190613571565b60405180910390f35b610165600480360381019061016091906135c2565b610443565b60405161017998979695949392919061363f565b60405180910390f35b61019c600480360381019061019791906135c2565b610505565b005b6101b860048036038101906101b391906136e9565b61088c565b6040516101c59190613729565b60405180910390f35b6101e860048036038101906101e391906135c2565b6108b1565b005b61020460048036038101906101ff9190613744565b6108be565b005b610220600480360381019061021b91906135c2565b6109bf565b604051610234989796959493929190613784565b60405180910390f35b61025760048036038101906102529190613867565b610aa7565b005b610273600480360381019061026e91906135c2565b610cc4565b005b61028f600480360381019061028a91906135c2565b610d9e565b005b6102ab60048036038101906102a69190613867565b61102d565b6040516102b992919061394d565b60405180910390f35b6102dc60048036038101906102d7919061397d565b6112e3565b005b6102f860048036038101906102f39190613a33565b6116e6565b005b610314600480360381019061030f9190613a86565b611a04565b005b610330600480360381019061032b91906135c2565b611c14565b005b61034c60048036038101906103479190613bf6565b611d95565b6040516103599190613c6e565b60405180910390f35b61037c600480360381019061037791906135c2565b611dba565b005b610398600480360381019061039391906135c2565b61207b565b005b60006301ffc9a760e01b7bffffffffffffffffffffffffffffffffffffffffffffffffffffffff1916827bffffffffffffffffffffffffffffffffffffffffffffffffffffffff1916148061043c5750634585e33b60e01b636e04ff0d60e01b187bffffffffffffffffffffffffffffffffffffffffffffffffffffffff1916827bffffffffffffffffffffffffffffffffffffffffffffffffffffffff1916145b9050919050565b60026020528060005260406000206000915090508060000160009054906101000a900473ffffffffffffffffffffffffffffffffffffffff16908060010160009054906101000a900473ffffffffffffffffffffffffffffffffffffffff16908060020160009054906101000a900473ffffffffffffffffffffffffffffffffffffffff16908060030154908060040154908060050154908060060160009054906101000a900460ff16908060060160019054906101000a900460ff16905088565b33816001600082815260200190815260200160002060000160009054906101000a900473ffffffffffffffffffffffffffffffffffffffff1673ffffffffffffffffffffffffffffffffffffffff168273ffffffffffffffffffffffffffffffffffffffff16146105ab576040517f08c379a00000000000000000000000000000000000000000000000000000000081526004016105a290613ce6565b60405180910390fd5b8260018061065d57600073ffffffffffffffffffffffffffffffffffffffff166001600084815260200190815260200160002060010160009054906101000a900473ffffffffffffffffffffffffffffffffffffffff1673ffffffffffffffffffffffffffffffffffffffff1614610658576040517f08c379a000000000000000000000000000000000000000000000000000000000815260040161064f90613d52565b60405180910390fd5b610704565b600073ffffffffffffffffffffffffffffffffffffffff166001600084815260200190815260200160002060010160009054906101000a900473ffffffffffffffffffffffffffffffffffffffff1673ffffffffffffffffffffffffffffffffffffffff161415610703576040517f08c379a00000000000000000000000000000000000000000000000000000000081526004016106fa90613dbe565b60405180910390fd5b5b600060016000878152602001908152602001600020600701541161075d576040517f08c379a000000000000000000000000000000000000000000000000000000000815260040161075490613e2a565b60405180910390fd5b600060016000878152602001908152602001600020600701549050600060016000888152602001908152602001600020600701819055506001600087815260200190815260200160002060040160009054906101000a900473ffffffffffffffffffffffffffffffffffffffff1673ffffffffffffffffffffffffffffffffffffffff1663a9059cbb33836040518363ffffffff1660e01b8152600401610805929190613e4a565b6020604051808303816000875af1158015610824573d6000803e3d6000fd5b505050506040513d601f19601f820116820180604052508101906108489190613e9f565b507f364c50cfd85ef2e44ae41c769b375ca3e4cd21a63f2f593171bdda820f70d1f733878360405161087c93929190613ecc565b60405180910390a1505050505050565b6003602052816000526040600020602052806000526040600020600091509150505481565b6108bb3382612155565b50565b33826001600082815260200190815260200160002060010160009054906101000a900473ffffffffffffffffffffffffffffffffffffffff1673ffffffffffffffffffffffffffffffffffffffff168273ffffffffffffffffffffffffffffffffffffffff1614610964576040517f08c379a000000000000000000000000000000000000000000000000000000000815260040161095b90613f4f565b60405180910390fd5b826002600086815260200190815260200160002060010160006101000a81548173ffffffffffffffffffffffffffffffffffffffff021916908373ffffffffffffffffffffffffffffffffffffffff16021790555050505050565b60016020528060005260406000206000915090508060000160009054906101000a900473ffffffffffffffffffffffffffffffffffffffff16908060010160009054906101000a900473ffffffffffffffffffffffffffffffffffffffff16908060020160009054906101000a900473ffffffffffffffffffffffffffffffffffffffff16908060030160009054906101000a900473ffffffffffffffffffffffffffffffffffffffff16908060040160009054906101000a900473ffffffffffffffffffffffffffffffffffffffff16908060050154908060060154908060070154905088565b60008060008484810190610abb9190613fa5565b92509250925060006002600085815260200190815260200160002060010160009054906101000a900473ffffffffffffffffffffffffffffffffffffffff1673ffffffffffffffffffffffffffffffffffffffff1663feaf968c6040518163ffffffff1660e01b815260040160a060405180830381865afa158015610b44573d6000803e3d6000fd5b505050506040513d601f19601f82011682018060405250810190610b689190614080565b505050915050828113610bb0576040517f08c379a0000000000000000000000000000000000000000000000000000000008152600401610ba790614147565b60405180910390fd5b610bb9846122cd565b6001600085815260200190815260200160002060030160009054906101000a900473ffffffffffffffffffffffffffffffffffffffff1673ffffffffffffffffffffffffffffffffffffffff166323b872dd6001600087815260200190815260200160002060010160009054906101000a900473ffffffffffffffffffffffffffffffffffffffff163060016000898152602001908152602001600020600601546040518463ffffffff1660e01b8152600401610c7893929190614167565b6020604051808303816000875af1158015610c97573d6000803e3d6000fd5b505050506040513d601f19601f82011682018060405250810190610cbb9190613e9f565b50505050505050565b610cce33826124af565b6001600082815260200190815260200160002060040160009054906101000a900473ffffffffffffffffffffffffffffffffffffffff1673ffffffffffffffffffffffffffffffffffffffff166323b872dd333060016000868152602001908152602001600020600701546040518463ffffffff1660e01b8152600401610d5793929190614167565b6020604051808303816000875af1158015610d76573d6000803e3d6000fd5b505050506040513d601f19601f82011682018060405250810190610d9a9190613e9f565b5050565b33816001600082815260200190815260200160002060000160009054906101000a900473ffffffffffffffffffffffffffffffffffffffff1673ffffffffffffffffffffffffffffffffffffffff168273ffffffffffffffffffffffffffffffffffffffff1614610e44576040517f08c379a0000000000000000000000000000000000000000000000000000000008152600401610e3b90613ce6565b60405180910390fd5b6002600084815260200190815260200160002060060160019054906101000a900460ff16610ea7576040517f08c379a0000000000000000000000000000000000000000000000000000000008152600401610e9e906141ea565b60405180910390fd5b6000600160008581526020019081526020016000206006015411610f00576040517f08c379a0000000000000000000000000000000000000000000000000000000008152600401610ef790613e2a565b60405180910390fd5b600060016000858152602001908152602001600020600601549050600060016000868152602001908152602001600020600601819055506001600085815260200190815260200160002060030160009054906101000a900473ffffffffffffffffffffffffffffffffffffffff1673ffffffffffffffffffffffffffffffffffffffff1663a9059cbb33836040518363ffffffff1660e01b8152600401610fa8929190613e4a565b6020604051808303816000875af1158015610fc7573d6000803e3d6000fd5b505050506040513d601f19601f82011682018060405250810190610feb9190613e9f565b507fd4072f896a83f1975997e4b3c8cc6e44538eafada8b6537b11e77ff1ead2455f33858360405161101f93929190613ecc565b60405180910390a150505050565b6000606061106f6040518060400160405280601181526020017f656e746572696e6720656e636f64696e67000000000000000000000000000000815250612885565b600080600086868101906110839190613fa5565b9250925092506110c76040518060400160405280600c81526020017f6f757420656e636f64696e670000000000000000000000000000000000000000815250612885565b6111056040518060400160405280601081526020017f656e746572696e67206b65636363616b00000000000000000000000000000000815250612885565b6000838360405160200161111a929190614219565b604051602081830303815290604052805190602001209050600061114f836111418461291e565b61294e90919063ffffffff16565b905061118f6040518060400160405280600a81526020017f6f7574206b656363616b00000000000000000000000000000000000000000000815250612885565b61119881612975565b6111d66040518060400160405280600b81526020017f7369675665726966696573000000000000000000000000000000000000000000815250612885565b60006002600087815260200190815260200160002060010160009054906101000a900473ffffffffffffffffffffffffffffffffffffffff1673ffffffffffffffffffffffffffffffffffffffff1663feaf968c6040518163ffffffff1660e01b815260040160a060405180830381865afa158015611259573d6000803e3d6000fd5b505050506040513d601f19601f8201168201806040525081019061127d9190614080565b505050915050848112158a8a81818080601f016020809104026020016040519081016040528093929190818152602001838380828437600081840152601f19601f8201169050808301925050505050505090509050975097505050505050509250929050565b87600073ffffffffffffffffffffffffffffffffffffffff168173ffffffffffffffffffffffffffffffffffffffff161415611354576040517f08c379a000000000000000000000000000000000000000000000000000000000815260040161134b9061428e565b60405180910390fd5b87600073ffffffffffffffffffffffffffffffffffffffff168173ffffffffffffffffffffffffffffffffffffffff1614156113c5576040517f08c379a00000000000000000000000000000000000000000000000000000000081526004016113bc9061428e565b60405180910390fd5b87600073ffffffffffffffffffffffffffffffffffffffff168173ffffffffffffffffffffffffffffffffffffffff161415611436576040517f08c379a000000000000000000000000000000000000000000000000000000000815260040161142d9061428e565b60405180910390fd5b8a73ffffffffffffffffffffffffffffffffffffffff166323b872dd33308b6040518463ffffffff1660e01b815260040161147393929190614167565b6020604051808303816000875af1158015611492573d6000803e3d6000fd5b505050506040513d601f19601f820116820180604052508101906114b69190613e9f565b506114c16000612a0e565b60006114cd6000612a24565b90508b6001600083815260200190815260200160002060020160006101000a81548173ffffffffffffffffffffffffffffffffffffffff021916908373ffffffffffffffffffffffffffffffffffffffff16021790555060006001600083815260200190815260200160002090508b8160030160006101000a81548173ffffffffffffffffffffffffffffffffffffffff021916908373ffffffffffffffffffffffffffffffffffffffff1602179055508a8160040160006101000a81548173ffffffffffffffffffffffffffffffffffffffff021916908373ffffffffffffffffffffffffffffffffffffffff16021790555089816005018190555087816007018190555088816006018190555062015180866115eb91906142dd565b426115f69190614337565b6002600084815260200190815260200160002060030181905550620151808761161f91906142dd565b4261162a9190614337565b6002600084815260200190815260200160002060040181905550338160000160006101000a81548173ffffffffffffffffffffffffffffffffffffffff021916908373ffffffffffffffffffffffffffffffffffffffff160217905550813373ffffffffffffffffffffffffffffffffffffffff167f37dc54e85dbf55ec2e90e3cdd1758d2306604af7b56743fa10d9115fd1e3915960016040516116cf9190613571565b60405180910390a350505050505050505050505050565b33836001600082815260200190815260200160002060010160009054906101000a900473ffffffffffffffffffffffffffffffffffffffff1673ffffffffffffffffffffffffffffffffffffffff168273ffffffffffffffffffffffffffffffffffffffff161461178c576040517f08c379a000000000000000000000000000000000000000000000000000000000815260040161178390613f4f565b60405180910390fd5b84600080156117f257426002600084815260200190815260200160002060040154106117ed576040517f08c379a00000000000000000000000000000000000000000000000000000000081526004016117e4906143d9565b60405180910390fd5b61184c565b426002600084815260200190815260200160002060040154101561184b576040517f08c379a000000000000000000000000000000000000000000000000000000000815260040161184290614445565b60405180910390fd5b5b85600073ffffffffffffffffffffffffffffffffffffffff168173ffffffffffffffffffffffffffffffffffffffff1614156118bd576040517f08c379a00000000000000000000000000000000000000000000000000000000081526004016118b49061428e565b60405180910390fd5b6002600089815260200190815260200160002060060160019054906101000a900460ff1615611921576040517f08c379a0000000000000000000000000000000000000000000000000000000008152600401611918906144b1565b60405180910390fd5b6001600260008a815260200190815260200160002060060160006101000a81548160ff02191690831515021790555086600260008a815260200190815260200160002060000160006101000a81548173ffffffffffffffffffffffffffffffffffffffff021916908373ffffffffffffffffffffffffffffffffffffffff16021790555085600260008a8152602001908152602001600020600501819055507f7f8b8b68ebd95ed5f82f3fae981c59ed57bcc3f9e43ae3c49a98963ac0f5bf1c8860016040516119f29291906144d1565b60405180910390a15050505050505050565b80600360008473ffffffffffffffffffffffffffffffffffffffff1673ffffffffffffffffffffffffffffffffffffffff16815260200190815260200160002060003373ffffffffffffffffffffffffffffffffffffffff1673ffffffffffffffffffffffffffffffffffffffff168152602001908152602001600020541015611ac3576040517f08c379a0000000000000000000000000000000000000000000000000000000008152600401611aba90614546565b60405180910390fd5b80600360008473ffffffffffffffffffffffffffffffffffffffff1673ffffffffffffffffffffffffffffffffffffffff16815260200190815260200160002060003373ffffffffffffffffffffffffffffffffffffffff1673ffffffffffffffffffffffffffffffffffffffff1681526020019081526020016000206000828254611b4f9190614566565b925050819055508173ffffffffffffffffffffffffffffffffffffffff1663a9059cbb33836040518363ffffffff1660e01b8152600401611b91929190613e4a565b6020604051808303816000875af1158015611bb0573d6000803e3d6000fd5b505050506040513d601f19601f82011682018060405250810190611bd49190613e9f565b507f9b1bfa7fa9ee420a16e124f794c35ac9f90472acc99140eb2f6447c714cad8eb823383604051611c0893929190614167565b60405180910390a15050565b33816001600082815260200190815260200160002060010160009054906101000a900473ffffffffffffffffffffffffffffffffffffffff1673ffffffffffffffffffffffffffffffffffffffff168273ffffffffffffffffffffffffffffffffffffffff1614611cba576040517f08c379a0000000000000000000000000000000000000000000000000000000008152600401611cb190613f4f565b60405180910390fd5b611cc3836122cd565b6001600084815260200190815260200160002060030160009054906101000a900473ffffffffffffffffffffffffffffffffffffffff1673ffffffffffffffffffffffffffffffffffffffff166323b872dd333060016000888152602001908152602001600020600601546040518463ffffffff1660e01b8152600401611d4c93929190614167565b6020604051808303816000875af1158015611d6b573d6000803e3d6000fd5b505050506040513d601f19601f82011682018060405250810190611d8f9190613e9f565b50505050565b6000611db282611da485612a32565b61294e90919063ffffffff16565b905092915050565b33816001600082815260200190815260200160002060000160009054906101000a900473ffffffffffffffffffffffffffffffffffffffff1673ffffffffffffffffffffffffffffffffffffffff168273ffffffffffffffffffffffffffffffffffffffff1614611e60576040517f08c379a0000000000000000000000000000000000000000000000000000000008152600401611e5790613ce6565b60405180910390fd5b82600080600260008481526020019081526020016000206003015411611ebb576040517f08c379a0000000000000000000000000000000000000000000000000000000008152600401611eb2906145e6565b60405180910390fd5b8015611f1f574260026000848152602001908152602001600020600301541015611f1a576040517f08c379a0000000000000000000000000000000000000000000000000000000008152600401611f1190614652565b60405180910390fd5b611f78565b42600260008481526020019081526020016000206003015410611f77576040517f08c379a0000000000000000000000000000000000000000000000000000000008152600401611f6e906146be565b60405180910390fd5b5b600073ffffffffffffffffffffffffffffffffffffffff166001600087815260200190815260200160002060010160009054906101000a900473ffffffffffffffffffffffffffffffffffffffff1673ffffffffffffffffffffffffffffffffffffffff16148061202b575042600260008781526020019081526020016000206004015410801561202a57506002600086815260200190815260200160002060060160019054906101000a900460ff16155b5b61206a576040517f08c379a00000000000000000000000000000000000000000000000000000000081526004016120619061472a565b60405180910390fd5b6120743386612a6d565b5050505050565b6120853382612b99565b6002600082815260200190815260200160002060000160009054906101000a900473ffffffffffffffffffffffffffffffffffffffff1673ffffffffffffffffffffffffffffffffffffffff166323b872dd333060026000868152602001908152602001600020600501546040518463ffffffff1660e01b815260040161210e93929190614167565b6020604051808303816000875af115801561212d573d6000803e3d6000fd5b505050506040513d601f19601f820116820180604052508101906121519190613e9f565b5050565b81816001600082815260200190815260200160002060010160009054906101000a900473ffffffffffffffffffffffffffffffffffffffff1673ffffffffffffffffffffffffffffffffffffffff168273ffffffffffffffffffffffffffffffffffffffff16146121fb576040517f08c379a00000000000000000000000000000000000000000000000000000000081526004016121f290613f4f565b60405180910390fd5b6002600084815260200190815260200160002060060160009054906101000a900460ff1661225e576040517f08c379a0000000000000000000000000000000000000000000000000000000008152600401612255906144b1565b60405180910390fd5b60006002600085815260200190815260200160002060060160006101000a81548160ff0219169083151502179055507f7f8b8b68ebd95ed5f82f3fae981c59ed57bcc3f9e43ae3c49a98963ac0f5bf1c8360006040516122bf9291906144d1565b60405180910390a150505050565b8060008015612333574260026000848152602001908152602001600020600401541061232e576040517f08c379a0000000000000000000000000000000000000000000000000000000008152600401612325906143d9565b60405180910390fd5b61238d565b426002600084815260200190815260200160002060040154101561238c576040517f08c379a000000000000000000000000000000000000000000000000000000000815260040161238390614445565b60405180910390fd5b5b60006001600085815260200190815260200160002060010160009054906101000a900473ffffffffffffffffffffffffffffffffffffffff1690506002600085815260200190815260200160002060060160019054906101000a900460ff161561242c576040517f08c379a0000000000000000000000000000000000000000000000000000000008152600401612423906144b1565b60405180910390fd5b60016002600086815260200190815260200160002060060160016101000a81548160ff0219169083151502179055506124658185612a6d565b838173ffffffffffffffffffffffffffffffffffffffff167f5a20425ee28c08dfaf53c051ce9fb1fdfedad2949379924d3313a74c2c61a2a560405160405180910390a350505050565b80600073ffffffffffffffffffffffffffffffffffffffff166001600083815260200190815260200160002060020160009054906101000a900473ffffffffffffffffffffffffffffffffffffffff1673ffffffffffffffffffffffffffffffffffffffff161415612556576040517f08c379a000000000000000000000000000000000000000000000000000000000815260040161254d90614796565b60405180910390fd5b8160008061260857600073ffffffffffffffffffffffffffffffffffffffff166001600084815260200190815260200160002060010160009054906101000a900473ffffffffffffffffffffffffffffffffffffffff1673ffffffffffffffffffffffffffffffffffffffff1614612603576040517f08c379a00000000000000000000000000000000000000000000000000000000081526004016125fa90613d52565b60405180910390fd5b6126af565b600073ffffffffffffffffffffffffffffffffffffffff166001600084815260200190815260200160002060010160009054906101000a900473ffffffffffffffffffffffffffffffffffffffff1673ffffffffffffffffffffffffffffffffffffffff1614156126ae576040517f08c379a00000000000000000000000000000000000000000000000000000000081526004016126a590613dbe565b60405180910390fd5b5b836001600060026000848152602001908152602001600020600301541161270b576040517f08c379a0000000000000000000000000000000000000000000000000000000008152600401612702906145e6565b60405180910390fd5b801561276f57426002600084815260200190815260200160002060030154101561276a576040517f08c379a000000000000000000000000000000000000000000000000000000000815260040161276190614652565b60405180910390fd5b6127c8565b426002600084815260200190815260200160002060030154106127c7576040517f08c379a00000000000000000000000000000000000000000000000000000000081526004016127be906146be565b60405180910390fd5b5b866001600088815260200190815260200160002060010160006101000a81548173ffffffffffffffffffffffffffffffffffffffff021916908373ffffffffffffffffffffffffffffffffffffffff160217905550426002600088815260200190815260200160002060030181905550858773ffffffffffffffffffffffffffffffffffffffff167feb353a6084f42c4569f7fe0e62ec9a9a107f0453a8f76735dd47ef68dcfcce3f60405160405180910390a350505050505050565b61291b8160405160240161289991906147fa565b6040516020818303038152906040527f41304fac000000000000000000000000000000000000000000000000000000007bffffffffffffffffffffffffffffffffffffffffffffffffffffffff19166020820180517bffffffffffffffffffffffffffffffffffffffffffffffffffffffff8381831617835250505050612f6f565b50565b600081604051602001612931919061489e565b604051602081830303815290604052805190602001209050919050565b600080600061295d8585612f98565b9150915061296a8161301b565b819250505092915050565b612a0b816040516024016129899190613c6e565b6040516020818303038152906040527f2c2ecbc2000000000000000000000000000000000000000000000000000000007bffffffffffffffffffffffffffffffffffffffffffffffffffffffff19166020820180517bffffffffffffffffffffffffffffffffffffffffffffffffffffffff8381831617835250505050612f6f565b50565b6001816000016000828254019250508190555050565b600081600001549050919050565b6000612a3e82516131f0565b82604051602001612a5092919061497d565b604051602081830303815290604052805190602001209050919050565b600060016000838152602001908152602001600020600501549050600060016000848152602001908152602001600020600501819055506001600083815260200190815260200160002060020160009054906101000a900473ffffffffffffffffffffffffffffffffffffffff1673ffffffffffffffffffffffffffffffffffffffff1663a9059cbb84836040518363ffffffff1660e01b8152600401612b15929190613e4a565b6020604051808303816000875af1158015612b34573d6000803e3d6000fd5b505050506040513d601f19601f82011682018060405250810190612b589190613e9f565b507f6349409af923ab04f6ba4cd71740fcf0de9efb3a66822fd753b51741914227cc838383604051612b8c93929190613ecc565b60405180910390a1505050565b80600073ffffffffffffffffffffffffffffffffffffffff166001600083815260200190815260200160002060020160009054906101000a900473ffffffffffffffffffffffffffffffffffffffff1673ffffffffffffffffffffffffffffffffffffffff161415612c40576040517f08c379a0000000000000000000000000000000000000000000000000000000008152600401612c3790614796565b60405180910390fd5b8160008015612ca65742600260008481526020019081526020016000206004015410612ca1576040517f08c379a0000000000000000000000000000000000000000000000000000000008152600401612c98906143d9565b60405180910390fd5b612d00565b4260026000848152602001908152602001600020600401541015612cff576040517f08c379a0000000000000000000000000000000000000000000000000000000008152600401612cf690614445565b60405180910390fd5b5b6002600085815260200190815260200160002060060160009054906101000a900460ff16612d63576040517f08c379a0000000000000000000000000000000000000000000000000000000008152600401612d5a906149f8565b60405180910390fd5b6002600085815260200190815260200160002060050154600360006002600088815260200190815260200160002060000160009054906101000a900473ffffffffffffffffffffffffffffffffffffffff1673ffffffffffffffffffffffffffffffffffffffff1673ffffffffffffffffffffffffffffffffffffffff16815260200190815260200160002060006001600088815260200190815260200160002060010160009054906101000a900473ffffffffffffffffffffffffffffffffffffffff1673ffffffffffffffffffffffffffffffffffffffff1673ffffffffffffffffffffffffffffffffffffffff1681526020019081526020016000206000828254612e719190614337565b92505081905550838573ffffffffffffffffffffffffffffffffffffffff166001600087815260200190815260200160002060010160009054906101000a900473ffffffffffffffffffffffffffffffffffffffff1673ffffffffffffffffffffffffffffffffffffffff167fddf252ad1be2c89b69c2b068fc378daa952ba7f163c4a11628f55a4df523b3ef60405160405180910390a4846001600086815260200190815260200160002060010160006101000a81548173ffffffffffffffffffffffffffffffffffffffff021916908373ffffffffffffffffffffffffffffffffffffffff160217905550612f688585612155565b5050505050565b60008151905060006a636f6e736f6c652e6c6f679050602083016000808483855afa5050505050565b600080604183511415612fda5760008060006020860151925060408601519150606086015160001a9050612fce87828585613351565b94509450505050613014565b60408351141561300b57600080602085015191506040850151905061300086838361345e565b935093505050613014565b60006002915091505b9250929050565b6000600481111561302f5761302e614a18565b5b81600481111561304257613041614a18565b5b141561304d576131ed565b6001600481111561306157613060614a18565b5b81600481111561307457613073614a18565b5b14156130b5576040517f08c379a00000000000000000000000000000000000000000000000000000000081526004016130ac90614a93565b60405180910390fd5b600260048111156130c9576130c8614a18565b5b8160048111156130dc576130db614a18565b5b141561311d576040517f08c379a000000000000000000000000000000000000000000000000000000000815260040161311490614aff565b60405180910390fd5b6003600481111561313157613130614a18565b5b81600481111561314457613143614a18565b5b1415613185576040517f08c379a000000000000000000000000000000000000000000000000000000000815260040161317c90614b91565b60405180910390fd5b60048081111561319857613197614a18565b5b8160048111156131ab576131aa614a18565b5b14156131ec576040517f08c379a00000000000000000000000000000000000000000000000000000000081526004016131e390614c23565b60405180910390fd5b5b50565b60606000821415613238576040518060400160405280600181526020017f3000000000000000000000000000000000000000000000000000000000000000815250905061334c565b600082905060005b6000821461326a57808061325390614c43565b915050600a826132639190614cbb565b9150613240565b60008167ffffffffffffffff81111561328657613285613acb565b5b6040519080825280601f01601f1916602001820160405280156132b85781602001600182028036833780820191505090505b5090505b60008514613345576001826132d19190614566565b9150600a856132e09190614cec565b60306132ec9190614337565b60f81b81838151811061330257613301614d1d565b5b60200101907effffffffffffffffffffffffffffffffffffffffffffffffffffffffffffff1916908160001a905350600a8561333e9190614cbb565b94506132bc565b8093505050505b919050565b6000807f7fffffffffffffffffffffffffffffff5d576e7357a4501ddfe92f46681b20a08360001c111561338c576000600391509150613455565b601b8560ff16141580156133a45750601c8560ff1614155b156133b6576000600491509150613455565b6000600187878787604051600081526020016040526040516133db9493929190614d77565b6020604051602081039080840390855afa1580156133fd573d6000803e3d6000fd5b505050602060405103519050600073ffffffffffffffffffffffffffffffffffffffff168173ffffffffffffffffffffffffffffffffffffffff16141561344c57600060019250925050613455565b80600092509250505b94509492505050565b60008060007f7fffffffffffffffffffffffffffffffffffffffffffffffffffffffffffffff60001b841690506000601b60ff8660001c901c6134a19190614337565b90506134af87828885613351565b935093505050935093915050565b6000604051905090565b600080fd5b600080fd5b60007fffffffff0000000000000000000000000000000000000000000000000000000082169050919050565b613506816134d1565b811461351157600080fd5b50565b600081359050613523816134fd565b92915050565b60006020828403121561353f5761353e6134c7565b5b600061354d84828501613514565b91505092915050565b60008115159050919050565b61356b81613556565b82525050565b60006020820190506135866000830184613562565b92915050565b6000819050919050565b61359f8161358c565b81146135aa57600080fd5b50565b6000813590506135bc81613596565b92915050565b6000602082840312156135d8576135d76134c7565b5b60006135e6848285016135ad565b91505092915050565b600073ffffffffffffffffffffffffffffffffffffffff82169050919050565b600061361a826135ef565b9050919050565b61362a8161360f565b82525050565b6136398161358c565b82525050565b600061010082019050613655600083018b613621565b613662602083018a613621565b61366f6040830189613621565b61367c6060830188613630565b6136896080830187613630565b61369660a0830186613630565b6136a360c0830185613562565b6136b060e0830184613562565b9998505050505050505050565b6136c68161360f565b81146136d157600080fd5b50565b6000813590506136e3816136bd565b92915050565b60008060408385031215613700576136ff6134c7565b5b600061370e858286016136d4565b925050602061371f858286016136d4565b9150509250929050565b600060208201905061373e6000830184613630565b92915050565b6000806040838503121561375b5761375a6134c7565b5b6000613769858286016135ad565b925050602061377a858286016136d4565b9150509250929050565b60006101008201905061379a600083018b613621565b6137a7602083018a613621565b6137b46040830189613621565b6137c16060830188613621565b6137ce6080830187613621565b6137db60a0830186613630565b6137e860c0830185613630565b6137f560e0830184613630565b9998505050505050505050565b600080fd5b600080fd5b600080fd5b60008083601f84011261382757613826613802565b5b8235905067ffffffffffffffff81111561384457613843613807565b5b6020830191508360018202830111156138605761385f61380c565b5b9250929050565b6000806020838503121561387e5761387d6134c7565b5b600083013567ffffffffffffffff81111561389c5761389b6134cc565b5b6138a885828601613811565b92509250509250929050565b600081519050919050565b600082825260208201905092915050565b60005b838110156138ee5780820151818401526020810190506138d3565b838111156138fd576000848401525b50505050565b6000601f19601f8301169050919050565b600061391f826138b4565b61392981856138bf565b93506139398185602086016138d0565b61394281613903565b840191505092915050565b60006040820190506139626000830185613562565b81810360208301526139748184613914565b90509392505050565b600080600080600080600080610100898b03121561399e5761399d6134c7565b5b60006139ac8b828c016136d4565b98505060206139bd8b828c016136d4565b97505060406139ce8b828c016136d4565b96505060606139df8b828c016135ad565b95505060806139f08b828c016135ad565b94505060a0613a018b828c016135ad565b93505060c0613a128b828c016135ad565b92505060e0613a238b828c016135ad565b9150509295985092959890939650565b600080600060608486031215613a4c57613a4b6134c7565b5b6000613a5a868287016135ad565b9350506020613a6b868287016136d4565b9250506040613a7c868287016135ad565b9150509250925092565b60008060408385031215613a9d57613a9c6134c7565b5b6000613aab858286016136d4565b9250506020613abc858286016135ad565b9150509250929050565b600080fd5b7f4e487b7100000000000000000000000000000000000000000000000000000000600052604160045260246000fd5b613b0382613903565b810181811067ffffffffffffffff82111715613b2257613b21613acb565b5b80604052505050565b6000613b356134bd565b9050613b418282613afa565b919050565b600067ffffffffffffffff821115613b6157613b60613acb565b5b613b6a82613903565b9050602081019050919050565b82818337600083830152505050565b6000613b99613b9484613b46565b613b2b565b905082815260208101848484011115613bb557613bb4613ac6565b5b613bc0848285613b77565b509392505050565b600082601f830112613bdd57613bdc613802565b5b8135613bed848260208601613b86565b91505092915050565b60008060408385031215613c0d57613c0c6134c7565b5b600083013567ffffffffffffffff811115613c2b57613c2a6134cc565b5b613c3785828601613bc8565b925050602083013567ffffffffffffffff811115613c5857613c576134cc565b5b613c6485828601613bc8565b9150509250929050565b6000602082019050613c836000830184613621565b92915050565b600082825260208201905092915050565b7f4432000000000000000000000000000000000000000000000000000000000000600082015250565b6000613cd0600283613c89565b9150613cdb82613c9a565b602082019050919050565b60006020820190508181036000830152613cff81613cc3565b9050919050565b7f4431330000000000000000000000000000000000000000000000000000000000600082015250565b6000613d3c600383613c89565b9150613d4782613d06565b602082019050919050565b60006020820190508181036000830152613d6b81613d2f565b9050919050565b7f4431320000000000000000000000000000000000000000000000000000000000600082015250565b6000613da8600383613c89565b9150613db382613d72565b602082019050919050565b60006020820190508181036000830152613dd781613d9b565b9050919050565b7f4431310000000000000000000000000000000000000000000000000000000000600082015250565b6000613e14600383613c89565b9150613e1f82613dde565b602082019050919050565b60006020820190508181036000830152613e4381613e07565b9050919050565b6000604082019050613e5f6000830185613621565b613e6c6020830184613630565b9392505050565b613e7c81613556565b8114613e8757600080fd5b50565b600081519050613e9981613e73565b92915050565b600060208284031215613eb557613eb46134c7565b5b6000613ec384828501613e8a565b91505092915050565b6000606082019050613ee16000830186613621565b613eee6020830185613630565b613efb6040830184613630565b949350505050565b7f4433000000000000000000000000000000000000000000000000000000000000600082015250565b6000613f39600283613c89565b9150613f4482613f03565b602082019050919050565b60006020820190508181036000830152613f6881613f2c565b9050919050565b6000819050919050565b613f8281613f6f565b8114613f8d57600080fd5b50565b600081359050613f9f81613f79565b92915050565b600080600060608486031215613fbe57613fbd6134c7565b5b6000613fcc868287016135ad565b9350506020613fdd86828701613f90565b925050604084013567ffffffffffffffff811115613ffe57613ffd6134cc565b5b61400a86828701613bc8565b9150509250925092565b600069ffffffffffffffffffff82169050919050565b61403381614014565b811461403e57600080fd5b50565b6000815190506140508161402a565b92915050565b60008151905061406581613f79565b92915050565b60008151905061407a81613596565b92915050565b600080600080600060a0868803121561409c5761409b6134c7565b5b60006140aa88828901614041565b95505060206140bb88828901614056565b94505060406140cc8882890161406b565b93505060606140dd8882890161406b565b92505060806140ee88828901614041565b9150509295509295909350565b7f4f7074696f6e206973204f544d00000000000000000000000000000000000000600082015250565b6000614131600d83613c89565b915061413c826140fb565b602082019050919050565b6000602082019050818103600083015261416081614124565b9050919050565b600060608201905061417c6000830186613621565b6141896020830185613621565b6141966040830184613630565b949350505050565b7f4431300000000000000000000000000000000000000000000000000000000000600082015250565b60006141d4600383613c89565b91506141df8261419e565b602082019050919050565b60006020820190508181036000830152614203816141c7565b9050919050565b61421381613f6f565b82525050565b600060408201905061422e6000830185613630565b61423b602083018461420a565b9392505050565b7f5472616e73616374696f6e20746f206164647265737328302921000000000000600082015250565b6000614278601a83613c89565b915061428382614242565b602082019050919050565b600060208201905081810360008301526142a78161426b565b9050919050565b7f4e487b7100000000000000000000000000000000000000000000000000000000600052601160045260246000fd5b60006142e88261358c565b91506142f38361358c565b9250817fffffffffffffffffffffffffffffffffffffffffffffffffffffffffffffffff048311821515161561432c5761432b6142ae565b5b828202905092915050565b60006143428261358c565b915061434d8361358c565b9250827fffffffffffffffffffffffffffffffffffffffffffffffffffffffffffffffff03821115614382576143816142ae565b5b828201905092915050565b7f4438000000000000000000000000000000000000000000000000000000000000600082015250565b60006143c3600283613c89565b91506143ce8261438d565b602082019050919050565b600060208201905081810360008301526143f2816143b6565b9050919050565b7f4439000000000000000000000000000000000000000000000000000000000000600082015250565b600061442f600283613c89565b915061443a826143f9565b602082019050919050565b6000602082019050818103600083015261445e81614422565b9050919050565b7f4437000000000000000000000000000000000000000000000000000000000000600082015250565b600061449b600283613c89565b91506144a682614465565b602082019050919050565b600060208201905081810360008301526144ca8161448e565b9050919050565b60006040820190506144e66000830185613630565b6144f36020830184613562565b9392505050565b7f4431350000000000000000000000000000000000000000000000000000000000600082015250565b6000614530600383613c89565b915061453b826144fa565b602082019050919050565b6000602082019050818103600083015261455f81614523565b9050919050565b60006145718261358c565b915061457c8361358c565b92508282101561458f5761458e6142ae565b5b828203905092915050565b7f4f7074696f6e20706172616d6174657273206e6f742073657474656420796574600082015250565b60006145d0602083613c89565b91506145db8261459a565b602082019050919050565b600060208201905081810360008301526145ff816145c3565b9050919050565b7f4f66666572206578706972656400000000000000000000000000000000000000600082015250565b600061463c600d83613c89565b915061464782614606565b602082019050919050565b6000602082019050818103600083015261466b8161462f565b9050919050565b7f4f66666572206e6f742065787069726564207965742100000000000000000000600082015250565b60006146a8601683613c89565b91506146b382614672565b602082019050919050565b600060208201905081810360008301526146d78161469b565b9050919050565b7f4434000000000000000000000000000000000000000000000000000000000000600082015250565b6000614714600283613c89565b915061471f826146de565b602082019050919050565b6000602082019050818103600083015261474381614707565b9050919050565b7f4f7074696f6e20646f6573206e6f74206578697374732e000000000000000000600082015250565b6000614780601783613c89565b915061478b8261474a565b602082019050919050565b600060208201905081810360008301526147af81614773565b9050919050565b600081519050919050565b60006147cc826147b6565b6147d68185613c89565b93506147e68185602086016138d0565b6147ef81613903565b840191505092915050565b6000602082019050818103600083015261481481846147c1565b905092915050565b600081905092915050565b7f19457468657265756d205369676e6564204d6573736167653a0a333200000000600082015250565b600061485d601c8361481c565b915061486882614827565b601c82019050919050565b6000819050919050565b6000819050919050565b61489861489382614873565b61487d565b82525050565b60006148a982614850565b91506148b58284614887565b60208201915081905092915050565b7f19457468657265756d205369676e6564204d6573736167653a0a000000000000600082015250565b60006148fa601a8361481c565b9150614905826148c4565b601a82019050919050565b600061491b826147b6565b614925818561481c565b93506149358185602086016138d0565b80840191505092915050565b600081905092915050565b6000614957826138b4565b6149618185614941565b93506149718185602086016138d0565b80840191505092915050565b6000614988826148ed565b91506149948285614910565b91506149a0828461494c565b91508190509392505050565b7f4431340000000000000000000000000000000000000000000000000000000000600082015250565b60006149e2600383613c89565b91506149ed826149ac565b602082019050919050565b60006020820190508181036000830152614a11816149d5565b9050919050565b7f4e487b7100000000000000000000000000000000000000000000000000000000600052602160045260246000fd5b7f45434453413a20696e76616c6964207369676e61747572650000000000000000600082015250565b6000614a7d601883613c89565b9150614a8882614a47565b602082019050919050565b60006020820190508181036000830152614aac81614a70565b9050919050565b7f45434453413a20696e76616c6964207369676e6174757265206c656e67746800600082015250565b6000614ae9601f83613c89565b9150614af482614ab3565b602082019050919050565b60006020820190508181036000830152614b1881614adc565b9050919050565b7f45434453413a20696e76616c6964207369676e6174757265202773272076616c60008201527f7565000000000000000000000000000000000000000000000000000000000000602082015250565b6000614b7b602283613c89565b9150614b8682614b1f565b604082019050919050565b60006020820190508181036000830152614baa81614b6e565b9050919050565b7f45434453413a20696e76616c6964207369676e6174757265202776272076616c60008201527f7565000000000000000000000000000000000000000000000000000000000000602082015250565b6000614c0d602283613c89565b9150614c1882614bb1565b604082019050919050565b60006020820190508181036000830152614c3c81614c00565b9050919050565b6000614c4e8261358c565b91507fffffffffffffffffffffffffffffffffffffffffffffffffffffffffffffffff821415614c8157614c806142ae565b5b600182019050919050565b7f4e487b7100000000000000000000000000000000000000000000000000000000600052601260045260246000fd5b6000614cc68261358c565b9150614cd18361358c565b925082614ce157614ce0614c8c565b5b828204905092915050565b6000614cf78261358c565b9150614d028361358c565b925082614d1257614d11614c8c565b5b828206905092915050565b7f4e487b7100000000000000000000000000000000000000000000000000000000600052603260045260246000fd5b614d5581614873565b82525050565b600060ff82169050919050565b614d7181614d5b565b82525050565b6000608082019050614d8c6000830187614d4c565b614d996020830186614d68565b614da66040830185614d4c565b614db36060830184614d4c565b9594505050505056fea2646970667358221220f1be8b3cd6a381d49ad89c369c7b10698f3a33a2ef550eac3460ad2bc2bffd5a64736f6c634300080a0033",
  "linkReferences": {},
  "deployedLinkReferences": {}
}